:020000040800F2
:10000000180500209D010008E5130008A70E000850
:10001000E1130008A70900084D21000800000000B6
:10002000000000000000000000000000F51B0008B8
:10003000B10C00080000000061140008E51C000875
:10004000B7010008B7010008B7010008B7010008B0
:10005000B7010008B7010008B7010008B7010008A0
:10006000B7010008B7010008B7010008B701000890
:10007000B7010008B7010008B7010008B701000880
:10008000B7010008B7010008B7010008B701000870
:10009000B7010008B7010008B7010008B701000860
:1000A000B7010008B7010008B7010008B701000850
:1000B000B7010008B7010008B7010008B701000840
:1000C000B7010008B7010008B7010008B701000830
:1000D000B7010008B7010008B7010008B701000820
:1000E000B7010008B7010008B7010008B701000810
:1000F000511D0008B7010008B7010008B70100084A
:10010000B7010008B7010008B7010008B7010008EF
:10011000B7010008B7010008B7010008B7010008DF
:10012000B7010008B7010008B7010008B7010008CF
:10013000B7010008B7010008B7010008B7010008BF
:10014000B7010008B7010008B7010008B7010008AF
:10015000B7010008B7010008B7010008B70100089F
:10016000B7010008B7010008B7010008B70100088F
:10017000B7010008B7010008B7010008B70100087F
:10018000B7010008B7010008DFF80CD000F0D8FA7A
:1001900000480047C1210008180500200648804794
:1001A00006480047FEE7FEE7FEE7FEE7FEE7FEE75C
:1001B000FEE7FEE7FEE7FEE7E91C0008890100080C
:1001C00040EA01039B0703D009E008C9121F08C0D9
:1001D000042AFAD203E011F8013B00F8013B521E59
:1001E000F9D270472DE9FE4F804681EA0300C00F27
:1001F0000C46009021F0004123F00045B8EB0200CE
:10020000A94105D24046214690461C460B4602466F
:1002100023F00040104304D14046214603B0BDE81E
:10022000F08F270DC7F30A00C3F30A510290401A5A
:100230000190402866DAC3F3130040F4801B009855
:10024000924620B10023D2EB030A63EB0B0B01981B
:100250005946C0F14002504600F0ABF906460D4643
:1002600050465946019A00F0C3F910EB080061416D
:10027000002487EA115284EAE7731A433BD0009ABC
:100280003AB3019A012A4FEA075210DC001B61EBD6
:1002900002014FF0004202EA0752CDE90042001C81
:1002A00041F5801132462B4600F0F7F9B6E7001B06
:1002B00061EB0201001C41F5801300185B4120181E
:1002C000A2F5001747EB030140EAD570B6196D415E
:1002D00011E06D084FEA360645EAC0754FEA07524D
:1002E000001B61EB0201001C41F5801149084FEA37
:1002F00030000019514132462B4603B0BDE8F04FA3
:1003000000F0BEB90098012240000023D0EB0202A9
:1003100063EBE073009821464FEAE074B8EB00000D
:1003200061EB0401E9E783F000435BE781F0004102
:1003300058E72DE9FE4F81EA030404F0004421F060
:10034000004100944FF0000B23F0004350EA0104F9
:1003500002D052EA030404D10020014603B0BDE8F4
:10036000F08FC3F30A54C1F30A552C44A4F2F334BA
:100370000194A0FB0254C1F3130141F48011C3F3B3
:10038000130343F4801301FB024400FB034E840A71
:10039000970A44EA815447EA8357A4FB0768029509
:1003A0008D0A05FB07854FEA932C04FB0C542705A7
:1003B000029D4FEA065847EA1637B5EB08056EEB83
:1003C000070C870E920E47EA811742EA8312A7FBB9
:1003D0000201B6EB0B0164EB00042B0D43EA0C3376
:1003E0005E1844EB1C50DA465146E7FB0201C5F3A8
:1003F00013044FEA0B3343EA14534FEA0432019CCF
:1004000043EA0603A4F10C040294009CCDE900B475
:1004100000F043F9A2E72DE9F04D81EA030404F06E
:10042000004B21F0004514464FF0000A23F0004134
:1004300050EA050220D054EA01021DD0C5F30A5744
:100440000246C5F31303C1F31300C1F30A5640F487
:10045000801543F48013A7EB0608101BD64608F25C
:10046000FD3873EB050002D308F1010801E0921892
:100470005B41B8F1000F03DA00200146BDE8F08DC2
:1004800000204FF48011064684460EE0171B73EBE4
:10049000050705D3121B63EB050306434CEA010C69
:1004A00049084FEA300092185B4150EA0107EDD14C
:1004B00052EA030012D082EA040083EA05010843ED
:1004C00003D100224FF0004308E0101BAB4102D2E1
:1004D0000122002302E06FF0010253101AEB060024
:1004E0004CEB085110EB0A0041EB0B01BDE8F04D5D
:1004F00000F0C6B80EB5C10F80EAE0700844CA0724
:10050000002140F233438DE80E000A460B4600F00E
:10051000C4F803B000BD70B5C1F30A5201F0004544
:100520000024C1F3130140F2FF3341F480119A42D9
:1005300001DA002070BD40F233439A42A2F2334206
:1005400003DC524200F044F800E090402C43F1D02C
:10055000404270BD00F0004230F000400AD0C10DB2
:1005600001F56071C0F3160042EA0151C20840076C
:100570001143704700200146704701F0004330B43A
:1005800021F0004150EA010206D00A0DA2F5607286
:10059000C1F31301002A02DC30BC00207047440F75
:1005A00044EAC104C100E01830BC00EBC25000F0C6
:1005B00031B8202A04DB203A00FA02F1002070470B
:1005C0009140C2F1200320FA03F319439040704791
:1005D000202A04DB203A21FA02F00021704721FA98
:1005E00002F3D040C2F120029140084319467047FF
:1005F000202A06DBCB17203A41FA02F043EAE073E7
:1006000006E041FA02F3D040C2F1200291400843D3
:10061000194670470029A8BF7047401C490008BF11
:1006200020F00100704710B4B0FA80FC00FA0CF022
:1006300050EA010404BF10BC704749B1CCF120045A
:1006400021FA04F411FA0CF118BF012121430843E7
:10065000A3EB0C01CB1D0106000A002BBEBF00203E
:1006600010BC704700EBC35010440029A4BF10BC5D
:100670007047401C490008BF20F0010010BC7047C3
:1006800010B5002B08DA401C41F1000192185B41C3
:100690001A4301D120F0010010BD2DE9F04D924622
:1006A0009B4611B1B1FA81F202E0B0FA80F2203239
:1006B0009046FFF77EFF04460F4640EA0A0041EAF3
:1006C0000B0153465A46084303D120463946BDE83C
:1006D000F08D114653EA010015D0C8F14002504692
:1006E000FFF776FF05460E46504659464246FFF74D
:1006F00060FF084301D0012000E00020054346EAE6
:10070000E0762C4337430A984FEA4453A0EB0800A5
:100710004FEAD4240A304FF0000244EA47544FEA2B
:10072000D72502D500200146D1E7010510196941FE
:10073000DDE9084500196941BDE8F04DA0E700007A
:10074000064C074D06E0E06840F0010394E807001E
:1007500098471034AC42F6D3FFF71AFD0450000856
:100760002450000800B58BB000F086F800200190FE
:1007700002900390049001A800F04CF8002005902E
:100780008DF8180001208DF81900002007900990BD
:1007900001208DF8280005A90C4800F079F8002305
:1007A00001220A21094800F09DF80121074800F0C4
:1007B00058F80121054800F049F80121034800F0EC
:1007C0001DF8024800F0EAF80BB000BD002001401F
:1007D0001CB500F097FE00F053F9012000900320B3
:1007E0008DF8040000208DF807006946024800F0EB
:1007F000EBFAFFF7B7FF1CBD0008024021B1826889
:1008000042F00102826003E0826822F0010282600D
:100810007047000000210A4A11680A4A01EA0201F1
:10082000D0E9002342EA0302836842EA0302C36874
:1008300042EA030242EA0101034AC2F80413704784
:1008400004230140E030FCFF0020014021B1826818
:1008500042F48072826003E0826822F480728260D7
:10086000704721B1826842F40072826003E08268BE
:1008700022F400728260704710B50121080200F076
:1008800031FE00214FF4807000F02CFE10BD0000FE
:1008900030B50246002000235068104C20400D79EE
:1008A0000C6844EA05242043506090680C4C2040BA
:1008B000D1E903542C438D682C434D7944EA450417
:1008C00020439060D06A20F470000C7D641EE4B276
:1008D000234340EA0350D06230BD0000FFFEFFFC1E
:1008E000FDF7FFC0F0B504460D4600200021092D9C
:1008F00011DDE068A5F10A0606EB4607072606FAB1
:1009000007F18843A5F10A0606EB460603FA06F14D
:100910000843E0600CE0206905EB4507072606FA6E
:1009200007F1884305EB450603FA06F10843206109
:10093000072A0FDA606B561E06EB86071F2606FA9B
:1009400007F18843561E06EB860605FA06F10843B2
:10095000606322E00D2A0FDA206BD61F06EB8607B4
:100960001F2606FA07F18843D61F06EB860605FA0E
:1009700006F10843206310E0E06AA2F10D0606EBE1
:1009800086071F2606FA07F18843A2F10D0606EB3B
:10099000860605FA06F10843E062F0BD816841F081
:1009A00080418160704700BFFEE71FB50121480705
:1009B00000F078FD0020009002900220039069462C
:1009C000002000F033F80121002000F007F840F685
:1009D000FA71002000F044F81FBD000039B1084A48
:1009E0001268012383401A43054B1A6006E0044A4B
:1009F0001268012383409A43014B1A60704700003C
:100A0000007400401CB50121084600F02BFD1020A9
:100A1000009003208DF8040000208DF8070069463F
:100A2000014800F0D1F91CBD0000024030B50022A1
:100A300000230A4C226840F6FE748440A243D1E9A8
:100A400000452C438D682C43CD6844EA050303FA26
:100A500000F42243014C226030BD000000740040CD
:100A600008B500220092054A009200F10802009B9E
:100A70001A440092009A116008BD00000074004002
:100A800000B58FB0154800F03BF8002000901448E6
:100A900001901448029000200390642004900020EC
:100AA00005904FF480600690400007908000089009
:100AB0004011099040020A9000200B9001200C90F8
:100AC00000200D900E906946044800F0C5F8012101
:100AD000024800F009F80FB000BD000010640240A9
:100AE0004C2001404C00002021B1026842F001027C
:100AF000026003E0026822F0010202607047000019
:100B0000016821F001010160002101604160816004
:100B1000C1600161212141614A49884204D13D21DE
:100B2000484A103A91608CE046491831884205D114
:100B30004FF47461434A103A916082E04149303188
:100B4000884205D14FF474113E4A103A916078E022
:100B50003C494831884205D14FF07461394A103A16
:100B600091606EE037496031884204D13649354A98
:100B7000103AD16065E033497831884204D1334975
:100B8000304A103AD1605CE02E499031884204D15D
:100B90002F492C4A103AD16053E02A49A8318842A3
:100BA00005D14FF03D51274A103AD16049E029491B
:100BB000884204D13D21274A083A116041E0254985
:100BC0001831884205D14FF47461224A083A116005
:100BD00037E020493031884205D14FF474111D4A65
:100BE000083A11602DE01B494831884205D14FF089
:100BF0007461184A083A116023E01649603188424E
:100C000004D11149134A121F11601AE011497831B9
:100C1000884204D10D490F4A121F116011E00D499D
:100C20009031884204D10A490A4A121F116008E033
:100C30000849A831884204D14FF03D51054A121F9E
:100C400011607047106002403D000020400F0020FE
:100C500000003D201064024010B500220268134BD2
:100C60001A40CC680B6823434C6923438C692343A7
:100C7000CC6923430C6A23434C6A23438C6A234385
:100C80004C6B23438C6B23431A430260426922F06E
:100C90000702D1E90B3423431A4342610B694360D5
:100CA0004B6883608B68C36010BD00003F801CF000
:100CB0007047000051B14FF0204252F8202042F01E
:100CC00001024FF0204343F8202009E04FF020427A
:100CD00052F82020034B1A404FF0204343F82020C5
:100CE00070470000FEFF0F00D0E901121143C268F7
:100CF0001143026911434269114382691143C26978
:100D00001143026A1143426A1143826A1143C26A63
:100D10001143026B11434FF02043026843F8221045
:100D20008168082908D11A46016852F8211041F05B
:100D30004001026843F82210416B0968426B526817
:100D400041EA0211426B926841EA0221426B9289A8
:100D500041EA0241426B128A41EA0251426B127D22
:100D600041EA0261426B926911430268521C4FF0E2
:100D7000204343F82210C16AB1F5804F1AD1816B2C
:100D80000968826B526841EA0211826B926841EAFB
:100D90000221826B128A41EA0251826B127D41EA82
:100DA0000261826B92691143026803EB8202C2F80E
:100DB000041108E06FF070414FF02043026803EB2C
:100DC0008202C2F804117047F0B50A4600210023E0
:100DD000002400BF3DE0012505FA01F3156805EA8E
:100DE00003049C4234D105684F000326BE40B5433E
:100DF000056015794E00B5400668354305601579E4
:100E0000012D02D01579022D16D185684F000326D9
:100E1000BE40B543856055794E00B5408668354380
:100E20008560456801268E40B543456045689679E2
:100E30008E40B6B235434560C5684F000326BE40BC
:100E4000B543C560D5794E00B540C6683543C56029
:100E5000491C1029BFD3F0BDF0B5002300244D0775
:100E6000ED0E02FA05F3CE1000F1200555F82650DC
:100E70004E07F70E0F26BE40B543CF1000F12006F7
:100E800046F82750CE1000F1200555F8265045EAC7
:100E90000304CE1000F1200545F82640F0BD418343
:100EA00070470183704700BFFEE730B50446002558
:100EB00040F23F11002000F019FA00F05BFA00BF89
:100EC00003E04FF0D84044806D1CB5F5963FF8D351
:100ED00030BD00001CB50121782000F0C3FA4CF2AF
:100EE0003370009002208DF804008DF8050000207A
:100EF0008DF806008DF8070069464A48FFF764FF41
:100F00000C2200214748FFF7A7FF0C22012145488A
:100F1000FFF7A2FF0C2204214248FFF79DFF0C229D
:100F200005214048FFF798FF0C2208213D48FFF7B4
:100F300093FF0C2209213B48FFF78EFF0C220A2168
:100F40003848FFF789FF0C220E213648FFF784FF4F
:100F50000C220F213348FFF77FFF4FF6807000907F
:100F600069463148FFF730FF0C2207212E48FFF772
:100F700073FF0C2208212C48FFF76EFF0C22092179
:100F80002948FFF769FF0C220A212748FFF764FF71
:100F90000C220B212448FFF75FFF0C221146224848
:100FA000FFF75AFF0C220D211F48FFF755FF0C22B7
:100FB0000E211D48FFF750FF0C220F211A48FFF7A2
:100FC0004BFF0120009069461848FFF7FDFE0C22F8
:100FD00000211648FFF740FF4FF48050009069460B
:100FE0001348FFF7F1FE0C2211461148FFF734FFBA
:100FF0000121042000F036FA8020009001208DF8B5
:10100000040002208DF8050000208DF806008DF800
:10101000070069460748FFF7D7FE80210548FFF71C
:1010200040FF1CBD000C02400010024000140240B2
:10103000001802400008024070B505460E461446EE
:10104000A4F12000C4B207480068016805480068A0
:10105000C088604301EB40023146284600F040F86A
:1010600070BD00000800002070B506460C46002543
:101070000AE0227829463046FFF7DEFF0A4800687A
:101080008088284485B2641C207808B1012000E0E3
:101090000020A9B2B1F5A07F01DA012100E0002112
:1010A0000842E6D170BD00000800002030B50546BA
:1010B000002400BF0FE004EBC400084B03EBC002A8
:1010C00004EB4400042303EBC00081B2284600F087
:1010D0006BF8601C84B20D2CEDDB30BD8C22000857
:1010E0002DE9F04307468846164600250024A14610
:1010F000B9464146484600F0F9F800BF47E000F025
:1011000039F9002435E02548006880880C2190FBDF
:10111000F1F0C10080208840204136F815100842C7
:1011200004D11E48006880880C280ADD36F81500B6
:101130000121A140084217D11848006880880C2876
:1011400012DD17480088012804D01548008800F0F7
:101150000DF90DE008EB0400401C81B2484600F098
:10116000C5F800F007F903E00E48008800F0FEF82B
:10117000641C0A4800688088A042C4D809F10100B4
:101180001FFA80F94146484600F0B0F86D1C03484C
:101190000068C088A842B2D8BDE8F08308000020EB
:1011A00002000020000000202DE9F04707468A4693
:1011B0009046002400250026A146B94651464846DF
:1011C00000F094F800BF26E000F0D4F8002617E005
:1011D000002512E0032000FB046018F800008021C5
:1011E0002941084204D14FF4784000F0BFF803E0F1
:1011F0004FF6E07000F0BAF86D1C082DEAD3761CAB
:10120000032EE5D309F1010000F0FF0951464846DD
:1012100000F06CF8641C182CD6D3BDE8F08700B53C
:101220009DB00121084600F02DF90920079000200B
:1012300008900820099000200A900B900C904FF025
:1012400080500D900120009000200190032002901A
:1012500000200390049005904FF0805006900620E7
:101260000E9000200F9010901020119000201290EE
:1012700013901490159016904FF480501790002002
:1012800018904FF48040199000201A9007A81B90E6
:10129000CDF870D00EA8FFF727FD01210620FFF73B
:1012A00009FD1DB000BD0000014800687047000046
:1012B0000800002001464FF0D84001804088704768
:1012C00001B5BDF800000149088008BD02000020FA
:1012D00003B5BDF8000003490880BDF804000249C9
:1012E00008800CBD000000200200002010B503465D
:1012F0000C4616480088A0F50941893908D11946DD
:101300004E2000F03CF821464F2000F038F81CE059
:101310000E480088A0F5134125390BD1194620202D
:1013200000F02DF840F23F10001B81B2212000F0A8
:1013300026F80AE02146202000F021F840F23F1074
:10134000C01A81B2212000F01AF810BD040000205C
:1013500001490860704700000800002001B5BDF891
:1013600000000149088008BD000000204FF0D8416E
:101370004880704722204FF0D841088070474FF0D6
:10138000D8421080518070471CB50121222000F006
:1013900069F84FF4F060009001208DF804000020FF
:1013A0008DF8060003208DF8050001208DF8070058
:1013B00069460948FFF708FD012000906946074883
:1013C000FFF702FD4FF4F0610348FFF76AFD0121CA
:1013D0000248FFF766FD1CBD0014024000040240F5
:1013E00000BFFEE77047000070B5002100230F2208
:1013F000C47824B3174C246804F4E064C4F5E064B2
:10140000C4F30721C1F10404E3B20A4144789C40CB
:10141000E1B28478144021430C07210E0E4C05786C
:101420006155047804F01F050124AC4005786D1166
:101430004FF0E02606EB8505C5F8004109E0047889
:1014400004F01F040125A540044C0678761144F8E9
:10145000265070BD0CED00E000E400E080E100E00B
:101460007047000029B1064A12680243044B1A6013
:1014700004E0034A12688243014B1A60704700007F
:101480003038024029B1064A12680243044B1A6000
:1014900004E0034A12688243014B1A60704700005F
:1014A0003838024029B1064A12680243044B1A60D8
:1014B00004E0034A12688243014B1A60704700003F
:1014C0004038024029B1064A12680243044B1A60B0
:1014D00004E0034A12688243014B1A60704700001F
:1014E0004438024029B1064A12680243044B1A608C
:1014F00004E0034A12688243014B1A6070470000FF
:101500002438024010B501210348FFF7ABFF012149
:101510000802FFF7D7FF10BD04004000F0B58FB000
:1015200000200E900D901822FAA107A8FEF748FEA1
:101530001822FEA101A8FEF743FE1426FFF7CAFCFD
:10154000FFF76DFE0020FFF7B5FE0E900E9898B1E4
:1015500040F6FF710E9888420ED30E98A0F509410F
:1015600089390CD00E98A0F51341203907D00E9878
:10157000A0F51341253902D048F689100E90F149A3
:101580000E98088048F689100E900E98A0F5134129
:1015900020397DD14FF40041E520FFF7F0FE012115
:1015A0000020FFF7ECFE4FF480710120FFF7E7FE0B
:1015B0004FF4E0610220FFF7E2FE41F23001032028
:1015C000FFF7DDFE00210420FFF7D9FE40F20221E3
:1015D0000820FFF7D4FE00210920FFF7D0FE0021EC
:1015E0000A20FFF7CCFE00210C20FFF7C8FE0021E7
:1015F0000D20FFF7C4FE00210F20FFF7C0FE0021E1
:101600001020FFF7BCFE00211120FFF7B8FE0021DB
:101610001220FFF7B4FE00211320FFF7B0FE1420C4
:1016200000F0ABFD41F2B0711020FFF7A8FE40F2D0
:1016300037111120FFF7A3FE052000F09EFD40F2B8
:1016400039111220FFF79BFE052000F096FD4FF4A4
:10165000E8511320FFF793FE13212920FFF78FFE97
:10166000052000F08AFD00212020FFF788FE0021E0
:101670002120FFF784FE07213020FFF780FE07219D
:101680003120FFF77CFE07213220FFF778FE00E0D3
:101690007AE007213520FFF772FE07213620FFF799
:1016A0006EFE4FF4E0613720FFF769FE4FF4E06112
:1016B0003820FFF764FE4FF4E0613920FFF75FFE4A
:1016C0004FF4E0613C20FFF75AFE4FF4F8513D2003
:1016D000FFF755FE00215020FFF751FEEF2151206A
:1016E000FFF74DFE00215220FFF749FE40F23F1167
:1016F0005320FFF744FE4FF41C516020FFF73FFEDC
:1017000001216120FFF73BFE00216A20FFF737FE31
:1017100000218020FFF733FE00218120FFF72FFEFC
:1017200000218220FFF72BFE00218320FFF727FEF8
:1017300000218420FFF723FE00218520FFF71FFEF4
:1017400010219020FFF71BFE00219220FFF717FECB
:1017500003219320FFF713FE4FF488719520FFF7C4
:101760000EFE00219720FFF70AFE00219820FFF7C8
:1017700006FE41F218010320FFF701FE40F273114B
:101780000720FFF7FCFDE2E10E98A0F50941893939
:101790007DD101210020FFF7F2FD00211020FFF78D
:1017A000EEFD052000F0E9FC40F233210720FFF7B1
:1017B000E6FD46F278011120FFF7E1FD4FF4C0612C
:1017C0000220FFF7DCFD4AF6A4010320FFF7D7FD56
:1017D00000210C20FFF7D3FD40F60C010D20FFF790
:1017E000CEFD4FF424510E20FFF7C9FDB8211E2075
:1017F000FFF7C5FD42F63F110120FFF7C0FD0021B4
:101800001020FFF7BCFD00210520FFF7B8FD0021E7
:101810000620FFF7B4FD4EF61C711620FFF7AFFD52
:1018200003211720FFF7ABFD40F233210720FFF71C
:10183000A6FDC0210B20FFF7A2FD00210F20FFF71E
:101840009EFD00214120FFF79AFD00214220FFF775
:1018500096FD00214820FFF792FD40F23F114920FC
:10186000FFF78DFD00214A20FFF789FD00214B2065
:10187000FFF785FD4FF46F414420FFF780FD002105
:101880004520FFF77CFD40F23F11462000E064E078
:10189000FFF775FD40F207713020FFF770FD4FF440
:1018A00001713120FFF76BFD4FF401713220FFF71A
:1018B00066FD40F202513320FFF761FD40F207510F
:1018C0003420FFF75CFD4FF401713520FFF757FD21
:1018D0004FF401713620FFF752FD40F202513720DC
:1018E000FFF74DFD40F202313A20FFF748FD40F28C
:1018F00002313B20FFF743FD00212320FFF73FFD8E
:1019000000212420FFF73BFD4FF400412520FFF785
:1019100036FD19E020207777772E61726D6A697342
:1019200068752E636F6D202000000000204C43443A
:1019300020535344313238392C494438393839200E
:10194000000000000400002000214E20FFF717FDDA
:1019500000214F20FFF713FDF9E00E98A0F5134189
:101960002539F9D101210020FFF709FD4FF48071DD
:101970000120FFF704FD4FF4E0610220FFF7FFFCB8
:1019800041F218010320FFF7FAFC00210420FFF7C1
:10199000F6FC40F202210820FFF7F1FC00210920AB
:1019A000FFF7EDFC00210A20FFF7E9FC00210C20E5
:1019B000FFF7E5FC00210D20FFF7E1FC00210F20DF
:1019C000FFF7DDFC00211020FFF7D9FC00211120DA
:1019D000FFF7D5FC00211220FFF7D1FC00211320D6
:1019E000FFF7CDFC142000F0C8FB41F2B0711020CD
:1019F000FFF7C5FC40F237111120FFF7C0FC0520AE
:101A000000F0BBFB40F239111220FFF7B8FC0520B3
:101A100000F0B3FB4FF4E8511320FFF7B0FC1321A3
:101A20002920FFF7ACFC052000F0A7FB00212020B7
:101A3000FFF7A5FC00212120FFF7A1FC07213020A2
:101A4000FFF79DFC40F202313120FFF798FC40F295
:101A500005113220FFF793FC40F206213520FFF7F5
:101A60008EFC40F608013620FFF789FC40F2062183
:101A70003720FFF784FC40F204513820FFF77FFC49
:101A800007213920FFF77BFC40F205113C20FFF7CE
:101A900076FC40F608013D20FFF771FC0021502044
:101AA000FFF76DFCEF215120FFF769FC0021522068
:101AB000FFF765FC40F23F115320FFF760FC4FF445
:101AC00027416020FFF75BFC01216120FFF757FCF5
:101AD00000216A20FFF753FC00218020FFF74FFC14
:101AE00000218120FFF74BFC00218220FFF747FCFB
:101AF00000218320FFF743FC00218420FFF73FFCF7
:101B000000218520FFF73BFC10219020FFF737FCD8
:101B100000219220FFF733FC03219320FFF72FFCD5
:101B20004FF488719520FFF72AFC00219720FFF7DA
:101B300026FC00219820FFF722FC41F20801032037
:101B4000FFF71DFC40F233110720FFF718FC274870
:101B5000FFF7FEFB4FF478414FF6E070FFF7B8FB5C
:101B60004FF4FC60FFF7A1F9FFF79EFB0027384612
:101B7000FFF79CFA1D4989887143C1F5A07000EBFD
:101B8000D071C1F34F05002411E0FFF78DFBC08831
:101B900000EBC00087B207A8025D1448808800FBF4
:101BA000045081B23846FFF747FA601CC4B2B44211
:101BB000EBDB0F480088A0F50941893914D10024D6
:101BC00010E0FFF771FBC0888004070C01A8025DDC
:101BD0000648808800FB045081B23846FFF72CFA93
:101BE000601CC4B2B442ECDB0FB0F0BD2C0000208E
:101BF00004000020704700000CB500200190009008
:101C00003448006840F480303249086000BF3148F1
:101C1000006800F4003000900198401C019000988A
:101C200018B90198B0F5A06FF1D12A48006810F4F6
:101C3000003F02D00120009001E0002000900098B9
:101C4000012845D123484030006840F080502149A8
:101C5000403108602048006840F480401E49086018
:101C60001C48083000681B490831086008460068B5
:101C700040F4004008600846006840F4A050086046
:101C80001648091F0860081F006840F08070091F8F
:101C9000086000BF0F48006810F0007FFAD040F2E3
:101CA00005600F4908600B480830006820F0030009
:101CB0000849083108600846006840F002000860E2
:101CC00000BF04480830006800F00C000828F8D174
:101CD0000CBD00000038024000700040195440075D
:101CE000003C02407047000010B51548006840F401
:101CF0007000134908601348006840F00100114962
:101D0000086000200F49083108600E4800680E493D
:101D100008400C4908600D48091D0860081F00684C
:101D200020F48020091F0860002006490C3108605B
:101D3000FFF762FF4FF0006001498039086010BD75
:101D400088ED00E000380240FFFFF6FE103000246E
:101D500010B52DED088B0121A04800F068F9002195
:101D60009F48FEF7C1FE00219E48FEF747FD002078
:101D70009D4908600EE09D489B49096830F81100B4
:101D80009B49096808449A49086097480068401CC4
:101D900095490860944800680A28ECDB944800687C
:101DA0000A2190FBF1F09249086008460068FEF7AE
:101DB000A1FB41EC100BB0EE40BAF0EE60BA9FED23
:101DC0008D0B53EC102B51EC1B0BFEF7ACFA41ECD6
:101DD000100BB0EE40AAF0EE60AA9FED860B53EC1C
:101DE000102B51EC1A0BFEF716FB41EC100BB0EE6A
:101DF000409AF0EE609A9FED810B53EC102B51EC62
:101E0000190BFEF796FA41EC100BB0EE408AF0EE9B
:101E1000608A51EC180BFEF7B0FB7A49086008465F
:101E200090ED000ADFED780A20EE200A10EE101A7D
:101E30000846FEF78FFB41EC100BB0EE409AF0EE37
:101E4000609A9FED720B53EC102B51EC190BFEF7BF
:101E5000E2FA41EC100BB0EE408AF0EE608A51ECF1
:101E6000180BFEF758FB40F64F11081A6949088015
:101E7000084601880020FEF7F3FD5D48006840F247
:101E8000FE71884248DA2D2063490870584800687E
:101E9000C0F5006056490860084690ED000AB8EEAB
:101EA000C00AF3EE080A20EE200ADFED5C0A80EE9D
:101EB000201A5B4880ED001A90ED000ABDEEC00AC2
:101EC00010EE100A303054494870554890ED000A21
:101ED000F2EE040A20EE200ABDEEC00A10EE100A4F
:101EE0000A2190FBF1F201FB120030304A49C87020
:101EF0004B4890ED000ADFED4B0A20EE200ABDEEC4
:101F0000C00A10EE100A0A2190FBF1F201FB120048
:101F10003030414908714DE03548006840F2FE71AB
:101F2000884247DD2B203C49087031480068A0F208
:101F3000FD702F490860084690ED000AB8EEC00A0F
:101F4000F3EE080A20EE200ADFED340A80EE201AB4
:101F5000334880ED001A90ED000ABDEEC00A10EE85
:101F6000100A30302C4948702D4890ED000AF2EEEE
:101F7000040A20EE200ABDEEC00A10EE100A0A2163
:101F800090FBF1F201FB120030302349C870244865
:101F900090ED000ADFED230A20EE200ABDEEC00A14
:101FA00010EE100A0A2190FBF1F201FB1200303012
:101FB000194908712E2018498870FFF775F9C088F3
:101FC00000EB800084B214492046FFF74DF8FEF77D
:101FD00057FDFEF7C7FBBDEC088B10BD00040140A8
:101FE0001064024000220140200000204C0000202C
:101FF0000C000020000000000000A04000000000D5
:1020000000002840180000200000FA43666666665B
:1020100066661D401000002024000020000080455E
:10202000140000200000C842CA4302827047CA431D
:102030000282704721B1028842F00102028004E06E
:1020400002884FF6FE731A40028070471FB50121C7
:102050000220FFF737FA44F29F10029040F2CF704F
:10206000ADF804000020ADF80C00ADF8060001A9A1
:102070000F4800F029F801210D48FFF7D5FF2C206B
:102080008DF8000001208DF8010000208DF802007D
:1020900001208DF803006846FFF7A6F901221146DA
:1020A000034800F007F801210148FFF7C3FF1FBDF7
:1020B000000401401AB183890B43838102E08389C4
:1020C0008B4383817047000000220288184B98429E
:1020D0000ED0184B98420BD0B0F1804F08D0164B61
:1020E000984205D0154B984202D0154B984204D126
:1020F0004FF68F731A404B881A43124B984207D001
:10210000114B984204D04FF6FF431A400B891A43F3
:1021100002804B68C3620B880385054B984202D04E
:10212000044B984201D18B7A038601238382704746
:10213000000001400004014000040040000800408D
:10214000000C0040001000400014004000BFFEE7FB
:1021500002E008C8121F08C1002AFAD17047704770
:10216000002001E001C1121F002AFBD1704710B509
:10217000FEF748FCFEF719FC10BD01B581B0002048
:102180000090019800EB80004000009002E0009871
:10219000401E009000980028F9D10CBD10B50446EF
:1021A00040F6B83104FB01F000F001F810BD00EB7F
:1021B0008002510000BF0A00A1F10101FBD170476C
:1021C000FFF7E2F8FFF7AAF9FEF702FB4FF6FF7000
:1021D000FEF76BFE1948FFF7BBF81F20FFF770F8FA
:1021E0004FF6FF70FFF7BAF8FFF75EF8C08800EB14
:1021F000400101EB001084B211A12046FEF734FF2C
:102200001A48FFF7A5F8FFF74FF8002418A1204659
:10221000FEF72AFFFFF71AFFFFF7A9FF0DE0802165
:102220001948FEF73CFE6420FFF7B8FF80211648EE
:10223000FEF737FE6420FFF7B1FFF0E73C00002017
:102240002041444320636F6E76657273696F6E2020
:10225000772F20444D41207472616E736665722041
:102260006578616D706C6520000000002C00002016
:1022700041444320436F6E76657273696F6E2040F0
:10228000324D737073000000001402400000000023
:1022900000000000000010000018000018000018E6
:1022A00000003C00003C00007C003FFFFC1FFFF8EA
:1022B00007FFE003FFC001FF8001FF8001FF8001F5
:1022C000FF8003E7C00381C00300C004006000007A
:1022D00000000000000000000000000200000600F6
:1022E0000046003FC40000C404008FFE208808118F
:1022F00089900911800521800221800303800582D5
:102300008005824008C24008C460104C202008307C
:1023100040101800600E0080000000000000000067
:1023200000001802000C0E000672080441FC004177
:10233000080041080441087E41080441080441089E
:10234000044108044508045908046178044118044C
:1023500001001A010071000060E002003FFC000073
:102360000000000000000000000003180006180034
:102370000430000C3FFC0C44101443202482004421
:102380003240042220044218048218051E08040664
:1023900000002000019820098C1009884C19804CFD
:1023A0003180440180E000FFC00000000000000018
:1023B000000001810003010003010402FFFE060189
:1023C000000401000E21180E3FE8162108262108FE
:1023D000262108463FF806210006130006120006D3
:1023E0000A00060600060600060F000610E006605A
:1023F0003C0180000000000000000800100FFFF802
:102400000C08100C08100C08100C08100C08100F09
:10241000FFF00808100808100808100808100FFF3F
:10242000F0080810080810080810101810101810EC
:102430002018102018F040003000000000000000BC
:102440000100040080020080020080000088009FDC
:10245000FC3F9088011088031088021FF80610883E
:102460000D90880CD08814508C241FFC44108804D4
:1024700000800400800400800400800400800401C7
:1024800080000100000000000000001800001000A3
:1024900000200003FFE00200400220400210400242
:1024A000184002084002004002004E3FFFF00200C8
:1024B0004002204002104006184006184004004028
:1024C0000800401007C0200180400000000000000C
:1024D00000000000F8007F001F980000300000405E
:1024E000400080C0073F0007C400001800006040A3
:1024F000008020077FF807881801080000C88001C5
:10250000886002083804081C18080C20F80C001811
:102510000000000000000000000000000C000C089B
:102520003FF00801000803018802008802188807AC
:10253000F8880410880C30880A20881320882160CD
:102540008801408800C088008188010108020008D5
:1025500004000818007820001800000000000000A7
:1025600000000000000000181FFFE00081800081D3
:102570008000818000818000818000818400818CC6
:102580001FFFF00081800081800081800181800137
:102590000180010180020180040180080180300176
:1025A000800000000000000000000031000460C056
:1025B0000C60600C606008400018400C17FFF000D1
:1025C000C00000C00000FFE000A06001A0400110BA
:1025D00080030980020900060600040600080D8039
:1025E0001030E020403E4380080000000000000062
:1025F00000000600300400F8041F000410000490DE
:10260000003F10000C10100C1FF00E14300D1420A1
:102610001C942014B2601432402423C0442180440E
:1026200021800423C004466004883804B01C05C01F
:10263000000000000000000000000000000000009A
:10264000000000000000000000000000000000008A
:10265000000000000000000000000000000000007A
:1026600000000000000080018001800180018001E5
:102670008001800180018001800180018001800152
:102680000000000080018001000000000000000048
:102690000000000000000000CC00CC00CC00CC000A
:1026A000CC00CC0000000000000000000000000092
:1026B000000000000000000000000000000000001A
:1026C000000000000000000000000000000000000A
:1026D000600C600C600C30063006FE1FFE1F3006DA
:1026E00038071803FE1FFE1F180318038C018C0106
:1026F0008C01000000008000E003F80F9C0E8C1C91
:102700008C188C009800F801E007800E801C8C1853
:102710008C189C18B80CF00FE003800080000000BB
:10272000000000000000000000000E181B0C110C3F
:1027300011061106110311039B018E01C038C06CF4
:1027400060446044304430441844186C0C38000035
:10275000000000000000E001F0033807180618062A
:102760003003F001F000F8009C310E33061E061C09
:10277000061C063FFC73F021000000000000000072
:1027800000000000000000000C000C000C000C0019
:102790000C000C0000000000000000000000000021
:1027A0000000000000000000000000000000000029
:1027B000000000000000000200038001C000C00013
:1027C0006000600030003000300030003000300029
:1027D0003000300060006000C000C00080010003D5
:1027E00000020000000020006000C00080018001A5
:1027F00000030003000600060006000600060006AF
:10280000000600060003000380018001C000600094
:102810002000000000000000000000000000000098
:10282000C000C000D806F807E001300338070000F8
:102830000000000000000000000000000000000098
:102840000000000000000000000000000000000088
:1028500080018001800180018001FC3FFC3F8001FC
:102860008001800180018001000000000000000064
:102870000000000000000000000000000000000058
:102880000000000000000000000000000000000048
:1028900000000000000080018001000100018000B4
:1028A0000000000000000000000000000000000028
:1028B000000000000000000000000000E007E0074A
:1028C0000000000000000000000000000000000008
:1028D00000000000000000000000000000000000F8
:1028E00000000000000000000000000000000000E8
:1028F000000000000000C000C00000000000000058
:10290000000000000000000C000C0006000600069D
:102910000003000300038003800180018001C000E8
:10292000C000C00060006000000000000000000067
:10293000000000000000E003F007380E180C0C182F
:102940000C180C180C180C180C180C180C180C1867
:10295000180C380EF007E003000000000000000033
:1029600000000000000000018001C001F00198019A
:102970008801800180018001800180018001800147
:102980008001800180018001000000000000000043
:10299000000000000000E003F80F180C0C180C18E1
:1029A00000180018000C000600038001C000600041
:1029B00030001800FC1FFC1F000000000000000099
:1029C000000000000000E001F807180E0C0C0C0CD1
:1029D000000C0006C003C007000C001800180C18FB
:1029E0000C18180CF807E0030000000000000000BD
:1029F000000000000000000C000E000F000F800D12
:102A0000C00C600C600C300C180C0C0CFC3FFC3F34
:102A1000000C000C000C000C000000000000000086
:102A2000000000000000F80FF80F180018000C005C
:102A3000EC03FC071C0E001C0018001800180C18F2
:102A40001C0C180EF807E003000000000000000056
:102A5000000000000000C007F00F381C1818180014
:102A60000C00CC03EC0F3C0E1C1C0C180C180C18A2
:102A7000181C380EF007E003000000000000000002
:102A8000000000000000FC1FFC1F000C00060006F8
:102A9000000380038001C001C000E000600060000E
:102AA0007000300030003000000000000000000026
:102AB000000000000000E003F007380E180C180CAE
:102AC000180C3806F007F007180C0C180C180C1826
:102AD0000C18380CF80FE0030000000000000000A4
:102AE000000000000000E003F007380E1C0C0C187A
:102AF0000C180C181C1C381EF81BE0190018000CD0
:102B0000000C1C0EF807F00100000000000000009F
:102B100000000000000000000000000000000000B5
:102B200080018001000000000000000000000000A3
:102B30000000000080018001000000000000000093
:102B40000000000000000000000000000000000085
:102B50008001800100000000000000000000000073
:102B600000000000800180010001000180000000E1
:102B70000000000000000000000000000000000055
:102B8000000000000010001C800FE003F800180097
:102B9000F800E003800F001C00100000000000009F
:102BA0000000000000000000000000000000000025
:102BB00000000000F81F000000000000F81F0000E7
:102BC0000000000000000000000000000000000005
:102BD00000000000000000000000000000000000F5
:102BE0000000000008003800F001C007001F0018B6
:102BF000001FC007F00138000800000000000000BE
:102C0000000000000000E003F80F180C0C180C186E
:102C10000018000C000600038001C000C000C000C6
:102C200000000000C000C000000000000000000024
:102C30000000000000000000E00718180420C2296E
:102C4000224A114409440944094409221113E20C9F
:102C5000024004201818E0070000000000000000F7
:102C600000000000000080038003C006C006C0060C
:102C7000600C600C301830183018F83FF83F1C70AA
:102C80000C600C6006C006C00000000000000000E0
:102C9000000000000000FC03FC0F0C0C0C180C18CA
:102CA0000C180C0CFC07FC0F0C180C300C300C3002
:102CB0000C300C18FC1FFC07000000000000000096
:102CC000000000000000C007F01F38381C300C70F6
:102CD0000660060006000600060006000600066004
:102CE0000C701C30F01FE007000000000000000026
:102CF000000000000000FE03FE0F060E0618061876
:102D0000063006300630063006300630063006182B
:102D10000618060EFE0FFE03000000000000000073
:102D2000000000000000FC3FFC3F0C000C000C0009
:102D30000C000C00FC1FFC1F0C000C000C000C0015
:102D40000C000C00FC3FFC3F0000000000000000F5
:102D5000000000000000F83FF83F180018001800BD
:102D600018001800F81FF81F1800180018001800A5
:102D700018001800180018000000000000000000F3
:102D8000000000000000E00FF83F3C780E6006E015
:102D900007C00300030003FE03FE03C007C006C014
:102DA0000EC03CF0F83FE00F000000000000000003
:102DB0000000000000000C300C300C300C300C30E7
:102DC0000C300C30FC3FFC3F0C300C300C300C3025
:102DD0000C300C300C300C30000000000000000003
:102DE000000000000000800180018001800180015E
:102DF00080018001800180018001800180018001CB
:102E000080018001800180010000000000000000BE
:102E10000000000000000006000600060006000694
:102E2000000600060006000600060006000618065A
:102E300018063807F003E001000000000000000061
:102E400000000000000006300618060C0606060307
:102E50008601C60066007600DE008E0106030606C7
:102E6000060C061806300660000000000000000096
:102E700000000000000018001800180018001800DA
:102E80001800180018001800180018001800180082
:102E900018001800F81FF81F0000000000000000D4
:102EA0000000000000000EE01EF01EF01EF036D8FC
:102EB00036D836D836D866CC66CC66CCC6C6C6C63A
:102EC000C6C6C6C686C386C3000000000000000058
:102ED0000000000000000C301C303C303C306C30F6
:102EE0006C30CC30CC308C310C330C330C360C368F
:102EF0000C3C0C3C0C380C300000000000000000C2
:102F0000000000000000E007F81F1C380E7006608B
:102F100003C003C003C003C003C003C003C00660F6
:102F20000E701C38F81FE0070000000000000000D1
:102F3000000000000000FC0FFC1F0C380C300C30AF
:102F40000C300C300C18FC1FFC070C000C000C00A3
:102F50000C000C000C000C00000000000000000041
:102F6000000000000000E007F81F1C380E7006602B
:102F700003E003C003C003C003C003C007E006634F
:102F80000E3F1C3CF83FE0F700C0000000000000CE
:102F9000000000000000FE0FFE1F0638063006305D
:102FA00006300638FE1FFE0706030606060C061846
:102FB0000618063006300660000000000000000021
:102FC000000000000000E003F80F1C0C0C180C18A7
:102FD0000C001C00F803E00F001E0038063006301D
:102FE0000E301C1CF80FE00700000000000000007D
:102FF000000000000000FE7FFE7F80018001800154
:1030000080018001800180018001800180018001B8
:1030100080018001800180010000000000000000AC
:103020000000000000000C300C300C300C300C3074
:103030000C300C300C300C300C300C300C300C30B0
:103040000C301818F81FE007000000000000000016
:1030500000000000000003600630063006300C1847
:103060000C180C18180C180C380E300630067007A7
:1030700060036003C001C001000000000000000008
:103080000000000000000360C361C361C3616633D8
:10309000663366336633663366336C1B6C1B6C1B9E
:1030A0002C1A3C1E380E380E0000000000000000F4
:1030B0000000000000000FE00C7018303018700C99
:1030C000600EC00780038003C003E006700C301C54
:1030D00018180C300E6007E000000000000000002F
:1030E00000000000000003C006600C301C383818D7
:1030F000300C6006E007C003800180018001800180
:1031000080018001800180010000000000000000BB
:10311000000000000000FC7FFC7F00600030001811
:10312000000C000600038001C000600030001800A1
:103130000C000600FE7FFE7F000000000000000083
:10314000000000000000E003E00360006000600099
:10315000600060006000600060006000600060006F
:103160006000600060006000600060006000E003DC
:10317000E0030000000030003000600060006000EC
:10318000C000C000C000C0018001800180010003B8
:10319000000300030006000600000000000000001D
:1031A000000000000000E003E00300030003000350
:1031B00000030003000300030003000300030003F7
:1031C0000003000300030003000300030003E00307
:1031D000E003000000000000C001C00160036003C4
:1031E000600330063006180C180C000000000000C8
:1031F00000000000000000000000000000000000CF
:1032000000000000000000000000000000000000BE
:1032100000000000000000000000000000000000AE
:10322000000000000000FFFFFFFF000000000000A2
:103230000000000000000C000C000C000C000C0052
:103240000C00000000000000000000000000000072
:10325000000000000000000000000000000000006E
:10326000000000000000000000000000000000005E
:10327000F003F8071C0C0C0C000FF00FF80C0C0CF2
:103280000C0C1C0FF80FF0180000000000000000EC
:1032900000000000000018001800180018001800B6
:1032A000D803F80F380C1818181818181818181808
:1032B0001818380CF80FD8030000000000000000B8
:1032C00000000000000000000000000000000000FE
:1032D000C003F007300E180C180018001800180072
:1032E000180C300EF007C0030000000000000000C2
:1032F0000000000000000018001800180018001856
:10330000C01BF01F301C1818181818181818181897
:103310001818301CF01FC01B000000000000000047
:10332000000000000000000000000000000000009D
:10333000C003F00F300C1818F81FF81F1800180001
:103340003818301CF00FC00700000000000000001B
:10335000000000000000800FC00FC000C000C000CF
:10336000F007F007C000C000C000C000C000C000EF
:10337000C000C000C000C00000000000000000004D
:10338000000000000000000000000000000000003D
:10339000E00DF80F180E0C0C0C0C0C0C0C0C0C0C9B
:1033A0000C0C180EF80FE00D000C0C0C1C06F807A6
:1033B000F0010000000018001800180018001800A4
:1033C000D807F80F381C18181818181818181818D3
:1033D000181818181818181800000000000000002D
:1033E000000000000000C000C0000000000000005D
:1033F000C000C000C000C000C000C000C000C000CD
:10340000C000C000C000C0000000000000000000BC
:10341000000000000000C000C0000000000000002C
:10342000C000C000C000C000C000C000C000C0009C
:10343000C000C000C000C000C000C000C000F80054
:103440007800000000000C000C000C000C000C00C8
:103450000C0C0C060C038C01CC006C00FC009C01D5
:103460008C030C030C060C0C000000000000000094
:10347000000000000000C000C000C000C000C0008C
:10348000C000C000C000C000C000C000C000C0003C
:10349000C000C000C000C00000000000000000002C
:1034A000000000000000000000000000000000001C
:1034B0007C3CFF7EC7E383C183C183C183C183C1D9
:1034C00083C183C183C183C10000000000000000EC
:1034D00000000000000000000000000000000000EC
:1034E0009807F80F381C18181818181818181818F2
:1034F000181818181818181800000000000000000C
:1035000000000000000000000000000000000000BB
:10351000C003F00F300C18181818181818181818BD
:103520001818300CF00FC00300000000000000006D
:10353000000000000000000000000000000000008B
:10354000D803F80F380C1818181818181818181865
:103550001818380CF80FD8031800180018001800B5
:103560001800000000000000000000000000000043
:10357000C01BF01F301C1818181818181818181825
:103580001818301CF01FC01B001800180018001875
:103590000018000000000000000000000000000013
:1035A000B007F00370003000300030003000300011
:1035B000300030003000300000000000000000004B
:1035C00000000000000000000000000000000000FB
:1035D000E003F003380E180C3800F003C007000CAD
:1035E000180C380EF007E003000000000000000097
:1035F00000000000000000008000C000C000C0000B
:10360000F007F007C000C000C000C000C000C0004C
:10361000C000C000C00780070000000000000000DC
:10362000000000000000000000000000000000009A
:10363000181818181818181818181818181818180A
:103640001818381CF01FE0190000000000000000EE
:10365000000000000000000000000000000000006A
:103660000C18180C180C180C3006300630066003C5
:1036700060036003C001C001000000000000000002
:10368000000000000000000000000000000000003A
:10369000C141C141C36163636363636336363636D8
:1036A00036361C1C1C1C1C1C000000000000000006
:1036B000000000000000000000000000000000000A
:1036C0001C38381C300C6006600360036003600324
:1036D0006006300C381C1C380000000000000000A0
:1036E00000000000000000000000000000000000DA
:1036F0001830301830187018600C600CE00CC006E0
:10370000C00680038003800380018001C001F000B7
:103710007000000000000000000000000000000039
:10372000FC1FFC1F000C000600038001C0006000AD
:1037300030001800FC1FFC1F00000000000000000B
:1037400000000000000000038001C000C000C000B5
:10375000C000C000C0006000600030006000400099
:10376000C000C000C000C000C000C0008001000355
:1037700000000000000080018001800180018001C4
:103780008001800180018001800180018001800131
:103790008001800180018001800180018001800121
:1037A0008001000000006000C000C00180018001B5
:1037B0008001800180010003000300060003000176
:1037C000800180018001800180018001C0006000D3
:1037D00000000000000000000000000000000000E9
:1037E00000000000F010F81F080F000000000000AB
:1037F00000000000000000000000000000000000C9
:1038000000000000000000000000000000000000B8
:103810000000000000000000000000000000002088
:1038200000200020002000200020002000000020B8
:103830000000000000000050005000500000000098
:10384000000000000000000000000000000000096F
:1038500000090012007F0012007F001200240024E3
:1038600000000000001000380054005000500038E4
:103870000014005400540038001000000000803094
:1038800000490049004AC032200520092009C01023
:10389000000000000000000C0012001200140018CC
:1038A000002500230023801D0000000000000040D0
:1038B0000040004000000000000000000000000088
:1038C0000000000000000008001000100020002090
:1038D0000020002000200020001000100000004008
:1038E0000020002000100010001000100010001038
:1038F0000020002000000020007000200050000088
:1039000000000000000000000000000000000000B7
:10391000000000080008007F000800080000000008
:103920000000000000000000000000000000000097
:103930000000000000000020002000400000000007
:103940000000000000000000007000000000000007
:103950000000000000000000000000000000000067
:103960000000000000000020000000000000001027
:103970000010001000200020002000200040004027
:103980000000000000000010002800440044004433
:103990000044004400280010000000000000001057
:1039A0000030005000100010001000100010001037
:1039B000000000000000003000480044000400083F
:1039C000001000200040007C0000000000000030DB
:1039D00000480004000800100008004400480030BF
:1039E000000000000000000800180018002800284F
:1039F0000048007C00080008000000000000003CB7
:103A000000200040007000480004004400480030DE
:103A10000000000000000018002400400050006872
:103A20000044004400280010000000000000007C5A
:103A300000040008001000100010002000200020EA
:103A400000000000000000100028004400280010C2
:103A500000280044002800100000000000000010B2
:103A6000002800440044002C0014000400480030EA
:103A70000000000000000000000000200000000026
:103A80000000000000000020000000000000000016
:103A900000000020000000000000000000000020E6
:103AA000002000400000000000040008003000403A
:103AB00000300008000400000000000000000000CA
:103AC0000000007C00000000007C000000000000FE
:103AD000000000000000000000400020001800046A
:103AE0000018002000400000000000000000003826
:103AF00000640044000400080010001000000010E2
:103B0000000000000000800F4010A02EA0512051A6
:103B1000205120512053C04D2020401000000008AB
:103B20000014001400140022003E00220041004155
:103B3000000000000000003C002200220022003CA7
:103B4000002200220022003C000000000000000EC5
:103B50000011002100200020002000210011000E93
:103B6000000000000000003C002200210021002194
:103B7000002100210022003C000000000000003E67
:103B8000002000200020003E002000200020003EF9
:103B9000000000000000003E002000200020003C4B
:103BA0000020002000200020000000000000000E87
:103BB0000011002100200027002100210011000E2B
:103BC0000000000000000021002100210021003F32
:103BD0000021002100210021000000000000002041
:103BE00000200020002000200020002000200020D5
:103BF000000000000000000800080008000800089D
:103C000000080048004800300000000000000022CA
:103C10000024002800280038002800240024002266
:103C200000000000000000200020002000200020F4
:103C3000002000200020003E000000000000802046
:103C4000803180318031802A802A802A802A802415
:103C5000000000000000002100310031002900298F
:103C60000025002300230021000000000000000CBC
:103C70000012002100210021002100210012000C6F
:103C8000000000000000003C002200220022003C56
:103C90000020002000200020000000000000000C98
:103CA0000012002100210021002100210016000D3A
:103CB000000100000000003E002100210021003E24
:103CC0000024002200218020000000000000001CD1
:103CD000002200220020001C000200220022001C02
:103CE000000000000000003E000800080008000876
:103CF0000008000800080008000000000000002183
:103D00000021002100210021002100210012000CCF
:103D100000000000000000410041002200220022BB
:103D200000140014001400080000000000004044CB
:103D3000404A402A802A802A802A802A802A00112C
:103D400000000000000000410022001400140008E0
:103D50000014001400220041000000000000004197
:103D600000220022001400080008000800080008D3
:103D7000000000000000007E0002000400080010A7
:103D8000001000200040007E000000000000003015
:103D90000020002000200020002000200020002023
:103DA00000200020000000400040002000200020F3
:103DB0000020002000100010000000000000006043
:103DC00000200020002000200020002000200020F3
:103DD00000200020000000100028002800280044D7
:103DE00000000000000000000000000000000000D3
:103DF00000000000000000000000000000000000C3
:103E00000000007E004000200000000000000000D4
:103E100000000000000000000000000000000000A2
:103E20000000003800440004003C00440044003C12
:103E30000000000000000040004000580064004402
:103E4000004400440064005800000000000000002E
:103E500000000030004800400040004000480030B2
:103E6000000000000000000400040034004C004486
:103E700000440044004C003400000000000000003A
:103E80000000003800440044007C0040004400383A
:103E90000000000000000060004000E00040004022
:103EA0000040004000400040000000000000000012
:103EB00000000034004C004400440044004C003436
:103EC000000400440000004000400058006400442A
:103ED0000044004400440044000000000000004092
:103EE0000000004000400040004000400040004012
:103EF00000000000000000400000004000400040C2
:103F000000400040004000400040004000000040F1
:103F10000040004800500060005000500048004839
:103F20000000000000000040004000400040004051
:103F30000040004000400040000000000000000081
:103F400000000052006D0049004900490049004945
:103F50000000000000000000000000580064004461
:103F60000044004400440044000000000000000041
:103F7000000000380044004400440044004400387D
:103F80000000000000000000000000580064004431
:103F9000004400440064005800400040000000005D
:103FA00000000034004C004400440044004C003445
:103FB0000004000400000000000000500060004009
:103FC00000400040004000400000000000000000F1
:103FD0000000003000480040003000080048003079
:103FE0000000000000000040004000E000400040F1
:103FF00000400040004000600000000000000000A1
:10400000000000440044004400440044004C0034DC
:1040100000000000000000000000004400440028F0
:104020000028002800280010000000000000000008
:104030000000004900490055005500550055002278
:1040400000000000000000000000004400280028DC
:1040500000100028002800440000000000000000BC
:104060000000004400440028002800280010001030
:104070000010001000000000000000780008001090
:104080000020002000400078000000000000001028
:104090000020002000200020004000200020002000
:1040A0000020002000000020002000200020002030
:1040B0000020002000200020002000200000004000
:1040C0000020002000200020001000200020002000
:1040D00000200020000000000000000000740058D4
:1040E00000000000000000000000000000000000D0
:1040F0000070005000500050005000500050007000
:1041000000000000000000000000000000000000AF
:10411000000000000000000000000000000000009F
:10412000000010001000100010001000100000002F
:1041300010000000000000000000280028002800F7
:10414000000000000000000000000000000000006F
:104150000000140014003E00140028007C00280019
:10416000280000000000000010003800540050003B
:104170003800140014005400380010000000000043
:1041800000004400A800A800500014001A002A00F3
:10419000240000000000000000002000500050003B
:1041A0002000E80098009800600000000000000077
:1041B000000080008000800000000000000000007F
:1041C00000000000000000000000400080008000AF
:1041D00080008000800080008000800000000000DF
:1041E00000008000400040004000400040004000CF
:1041F000400040000000000000004000E0004000DF
:10420000A00000000000000000000000000000000E
:1042100000000000000020002000F8002000200026
:10422000000000000000000000000000000000008E
:1042300000000000000000004000400000000000FE
:10424000000000000000000000000000C0000000AE
:10425000000000000000000000000000000000005E
:10426000000000000000000040000000000000000E
:10427000000020002000200040004000800080005E
:10428000800000000000000000006000900090002E
:10429000900090009000900060000000000000007E
:1042A000000020006000A00020002000200020006E
:1042B00020000000000000000000600090001000DE
:1042C0001000200040008000F0000000000000000E
:1042D00000006000900010006000100010009000CE
:1042E00060000000000000000000100030005000DE
:1042F00050009000F80010001000000000000000C6
:104300000000700040008000E000100010009000ED
:1043100060000000000000000000600090008000CD
:10432000A000D0009000900060000000000000009D
:104330000000F0001000200020002000400040009D
:1043400040000000000000000000600090009000AD
:1043500060009000900090006000000000000000ED
:104360000000600090009000B0005000100090002D
:10437000600000000000000000000000000040009D
:1043800000000000000000004000000000000000ED
:1043900000000000000040000000000000000000DD
:1043A000400040000000000000000000000010007D
:1043B00060008000600010000000000000000000AD
:1043C0000000000000000000F0000000F00000000D
:1043D000000000000000000000000000000080005D
:1043E000600010006000800000000000000000007D
:1043F000000060009000100020004000400000001D
:10440000400000000000000000001C0022005B00D3
:10441000A500A500A500A5009E0041000000000029
:104420000000200050005000500050007000880034
:1044300088000000000000000000F00088008800F4
:10444000F000880088008800F000000000000000F4
:104450000000380044008400800080008400440094
:1044600038000000000000000000E000900088001C
:104470008800880088009000E00000000000000034
:104480000000F80080008000F800800080008000BC
:10449000F80000000000000000007800400040002C
:1044A000700040004000400040000000000000009C
:1044B000000038004400840080009C008400440018
:1044C000380000000000000000008800880088001C
:1044D000F8008800880088008800000000000000C4
:1044E000000080008000800080008000800080004C
:1044F000800000000000000000001000100010000C
:10450000100010009000900060000000000000000B
:10451000000088009000A000E000A0009000900043
:104520008800000000000000000080008000800083
:104530008000800080008000F0000000000000008B
:1045400000008200C600C600AA00AA00AA00AA00B5
:10455000920000000000000000008400C400A400DD
:10456000A400940094008C0084000000000000006F
:10457000000030004800840084008400840048006B
:1045800030000000000000000000F00088008800FB
:104590008800F00080008000800000000000000023
:1045A000000030004800840084008400840058002B
:1045B00034000400000000000000780044004400C3
:1045C0007800500048004400420000000000000055
:1045D00000007000880080007000080088008800DB
:1045E00070000000000000000000F8002000200023
:1045F000200020002000200020000000000000001B
:10460000000084008400840084008400840048004A
:10461000300000000000000000008800880050000A
:10462000500050005000500020000000000000002A
:1046300000009200AA00AA00AA00AA00AA00AA00EC
:104640004400000000000000000084004800480012
:1046500030003000480048008400000000000000E6
:1046600000008800500050002000200020002000A2
:1046700020000000000000000000F800080010000A
:104680002000200040008000F80000000000000032
:104690000000C0008000800080008000800080005A
:1046A00080008000000000000000800080004000CA
:1046B00040004000400020002000000000000000FA
:1046C0000000C000400040004000400040004000AA
:1046D000400040000000000000004000A000A000DA
:1046E000A00000000000000000000000000000002A
:1046F00000000000000000000000000000000000BA
:104700000000F800000000000000800040000000F1
:104710000000000000000000000000000000000099
:10472000000000000000E000100070009000900009
:104730007000000000000000000080008000A00069
:10474000D00090009000D000A00000000000000009
:1047500000000000000060009000800080009000D9
:104760006000000000000000000010001000500079
:10477000B00090009000B000500000000000000069
:1047800000000000000060009000F0008000900039
:1047900060000000000000000000C0008000C000B9
:1047A0008000800080008000800000000000000089
:1047B0000000000000005000B00090009000B00029
:1047C0005000100000000000000080008000A000E9
:1047D000D0009000900090009000000000000000C9
:1047E00000008000000080008000800080008000C9
:1047F0008000000000000000000080000000800039
:1048000080008000800080008000800000000000A8
:104810000000800080009000A000C000A000900078
:104820009000000000000000000080008000800078
:1048300080008000800080008000000000000000F8
:10484000000000000000A600DA0092009200920032
:104850009200000000000000000000000000A00026
:10486000D000900090009000900000000000000038
:104870000000000000006000900090009000900098
:104880006000000000000000000000000000A00028
:10489000D00090009000D000A00080000000000038
:1048A0000000000000005000B00090009000B00038
:1048B0005000100000000000000000000000A000F8
:1048C000C000800080008000800000000000000028
:1048D000000000000000E000900040002000900078
:1048E0006000000000000000000080008000C000A8
:1048F0008000800080008000C000000000000000F8
:104900000000000000009000900090009000B000B7
:1049100050000000000000000000000000008800BF
:1049200088005000500050002000000000000000EF
:104930000000000000009200AA00AA00AA00AA003D
:10494000440000000000000000000000000088009B
:1049500050002000200050008800000000000000EF
:1049600000000000000088005000500050002000AF
:104970002000200000000000000000000000F00007
:104980001000200040008000F00000000000000047
:104990000000C000800080008000000080008000D7
:1049A0008000800000000000000080008000800087
:1049B00080008000800080008000800000000000F7
:1049C0000000C000400040004000200040004000C7
:1049D0004000400000000000000000000000000057
:1049E000E800B0000000000000000000000000002F
:1049F00000000000E000A000A000A000A000A000B7
:104A0000E0000000000000000000000000000000C6
:104A10000000000040004000400040004000400016
:104A200000004000A000A000A00000000000000066
:104A300000000000000024002400FE004800FC00EC
:104A4000480048003800540050003800140014009A
:104A5000540038004400A800A800500014001A00B8
:104A60002A002400100028002800100074004C00C8
:104A70004C0030001000100010000000000000008A
:104A800000000000080010001000100010001000CE
:104A900010000800100008000800080008000800C6
:104AA0000800100000000000240018003C0018005E
:104AB0002400000000000000100010007C00100026
:104AC00010000000000000000000000000000800CE
:104AD0000800100000000000000000003C00000082
:104AE00000000000000000000000000000000000C6
:104AF000180018000800080008001000100020002E
:104B00002000200018002400240024002400240099
:104B100024001800080018002800080008000800F9
:104B200008000800380044000000040008001000DD
:104B300020007C0018002400040018000400040079
:104B40002400180004000C001400240044007E001F
:104B5000040004003C002000200038000400040091
:104B6000240018001800240020003800240024002D
:104B7000240018003C000400080008000800100091
:104B80001000100018002400240018002400240045
:104B90002400180018002400240024001C00040035
:104BA00024001800000000001000000000001000A9
:104BB00000000000000000000800000000000800E5
:104BC0001000000000000000040018002000180081
:104BD000040000000000000000003C0000003C0059
:104BE0000000000000000000200018000400180071
:104BF000200000001800240004000800100010002D
:104C0000000010003C0042009900A500A5009D0096
:104C10004200380038004400440044007C00440056
:104C200044004400780044004400780044004400FC
:104C3000440078001C002200420040004000420076
:104C400022001C007000480044004400440044005E
:104C5000480070007C00400040007C0040004000A4
:104C600040007C003C002000200038002000200094
:104C7000200020001C002200420040004E004200A4
:104C800022001C004400440044007C004400440016
:104C9000440044001000100010001000100010002C
:104CA00010001000040004000400040004002400AC
:104CB00024001800440048005000700050004800D4
:104CC0004800440020002000200020002000200098
:104CD00020003C008200C600C600AA00AA00AA006C
:104CE000AA00920042006200520052004A004A00AC
:104CF00046004200180024004200420042004200E8
:104D0000240018007800440044004400780040006B
:104D100040004000180024004200420042004200CF
:104D20002C001A007800440044007800500048002D
:104D300044004200380044004000380004004400B1
:104D4000440038007C00100010001000100010001B
:104D500010001000420042004200420042004200A7
:104D600024001800440044002800280028002800DF
:104D7000280010009200AA00AA00AA00AA00AA0017
:104D8000AA00440042002400240018001800240057
:104D900024004200440028002800100010001000E9
:104DA000100010007C00040008001000100020001B
:104DB00040007C001C0010001000100010001000CB
:104DC00010001C0010001000080008000800080077
:104DD000040004001C00040004000400040004009B
:104DE00004001C0010002800440000000000000027
:104DF00000000000000000000000000000000000B3
:104E00000000000020001000100000000000000062
:104E10000000000000000000180004001C00240036
:104E200024001C002000200028003400240024005E
:104E3000340028000000000018002400200020009A
:104E4000240018000400040014002C002400240096
:104E50002C00140000000000180024003C0020007A
:104E600024001800000018001000100018001000A6
:104E70001000100000001800240024001800040096
:104E80002400180020002000280034002400240002
:104E9000240024001000000010001000100010007A
:104EA00010001000080000000800080008000800BA
:104EB00028001000200020002400280030002800D6
:104EC000240024001000100010001000100010003A
:104ED0001000100000000000A600DA00920092000E
:104EE00092009200000000002800340024002400FA
:104EF00024002400000000001800240024002400E6
:104F0000240018000000280034002400380020008D
:104F100020002000000014002C0024001C000400CD
:104F200004000400000000002C00300020002000DD
:104F300020002000000000001800240010000800DD
:104F400024001800000010003800100010001000AD
:104F50001000180000000000240024002400240099
:104F60002C00140000000000440044002800280029
:104F700028001000000000009200AA00AA00AA0069
:104F8000AA004400000000004400280010001000A7
:104F9000280044000000280028002800100010000D
:104FA00010001000000000003C0004000800100089
:104FB00020003C000000080010001000200010003D
:104FC0001000080010001000100010001000100069
:104FD0001000100000001000080008000400080085
:104FE00008001000000000000000600092000C00AB
:104FF00000000000FF00FF00FF00FF00FF00FF00B7
:10500000FF00FF0024500008000000204C000000BA
:1050100050210008705000084C000020CC04000013
:10502000602100080000FFFF0000000000000000F9
:105030000000000000000000000000000000000070
:105040000000000000000000000000000000000060
:105050003426000810001800043800080C000C006A
:105060000441000808000C00044A00080800080079
:040000050800018965
:00000001FF
