:020000040800F2
:10000000000C0020A1010008450C0008FB0B0008B3
:10001000410C0008330900081D150008000000000D
:100020000000000000000000000000004511000872
:100030000D0A000800000000C1100008A912000805
:10004000BB010008BB010008BB010008BB010008A0
:10005000BB010008BB010008110A0008490A00089A
:10006000BB010008BB010008BB010008BB01000880
:10007000BB010008BB010008BB010008BB01000870
:10008000BB010008BB010008BB010008BB01000860
:10009000BB010008BB010008BB010008BB01000850
:1000A000BB010008BB010008BB010008BB01000840
:1000B000BB010008BB010008BB010008BB01000830
:1000C000BB010008BB010008BB010008BB01000820
:1000D000BB010008BB010008BB010008BB01000810
:1000E000BB010008BB010008BB010008BB01000800
:1000F00015130008BB010008BB010008BB01000884
:10010000BB010008BB010008BB010008BB010008DF
:10011000BB010008BB010008BB010008BB010008CF
:10012000BB010008BB010008BB010008BB010008BF
:10013000BB010008BB010008BB010008BB010008AF
:10014000BB010008BB010008BB010008BB0100089F
:10015000BB010008BB010008BB010008BB0100088F
:10016000BB010008BB010008BB010008BB0100087F
:10017000BB010008BB010008BB010008BB0100086F
:10018000BB010008BB010008DFF810D000F072FAD4
:10019000004800477D1F0008AFF30080000C0020DE
:1001A0000648804706480047FEE7FEE7FEE7FEE711
:1001B000FEE7FEE7FEE7FEE7FEE7FEE7AD1200081A
:1001C0008901000830B4044696230800214604D073
:1001D000B62330BC002200F066B820460021F8E7C4
:1001E00000F0004230F000400AD0C10D01F560710E
:1001F000C0F3160042EA0151C2084007114370479C
:1002000000200146704730B50B46014600202022F1
:10021000012409E021FA02F59D4205D303FA02F513
:10022000491B04FA02F52844151EA2F10102F1DC73
:1002300030BD2DE9F05F0546002092469B4688467A
:100240000646814640241BE0284641464746224652
:1002500000F031FA53465A46C01A914110D3114664
:100260001846224600F018FA2D1A67EB01084F468F
:1002700022460120002100F00FFA17EB00094E4141
:10028000201EA4F10104DFDC484631462A464346DD
:10029000BDE8F09F0029A8BF7047401C490008BF77
:1002A00020F00100704710B4B0FA80FC00FA0CF0A6
:1002B00050EA010404BF10BC704749B1CCF12004DE
:1002C00021FA04F411FA0CF118BF0121214308436B
:1002D000A3EB0C01CB1D4FEA00614FEA102042BF97
:1002E000002010BC704700EBC35010440029A4BF8D
:1002F00010BC7047401C490008BF20F0010010BC32
:1003000070472DE9FE4F804681EA0300C00F0C467E
:10031000009021F0004123F00045B8EB0200A94114
:1003200005D24046214690461C460B46024623F025
:100330000040104347D0270DC7F30A00C3F30A510A
:100340000290401A019040286BDAC3F3130040F486
:10035000801B0098924620B10023D2EB030A63EB86
:100360000B0B01985946C0F14002504600F094F939
:1003700006460D4650465946019A00F0ACF910EB7E
:1003800008006141002487EA115284EAE7731A43A6
:1003900040D0009A62B3019A012A4FEA075215DC55
:1003A000001B61EB02014FF0004202EA0752CDE967
:1003B0000042001C41F5801132462B4600F0ACF99A
:1003C00003B0BDE8F08F40462146F9E7001B61EB22
:1003D0000201001C41F5801300185B412018A2F5B2
:1003E000001747EB030140EAD570B6196D4111E0E3
:1003F0006D084FEA360645EAC0754FEA0752001B02
:1004000061EB0201001C41F5801149084FEA300000
:100410000019514132462B4603B0BDE8F04F00F0C1
:100420006CB90098012240000023D0EB020263EB7C
:10043000E073009821464FEAE074B8EB000061EBEE
:100440000401E9E783F000435BE781F0004158E7EE
:100450002DE9FE4F81EA030404F0004421F000413D
:1004600000944FF0000B23F0004350EA01045ED0EB
:1004700052EA03045BD0C3F30A54C1F30A552C4477
:10048000A4F2F3340194A0FB0254C1F3130141F42C
:100490008011C3F3130343F4801301FB024400FBF8
:1004A000034E840A970A44EA815447EA8357A4FB1F
:1004B000076802958D0A05FB07854FEA932C04FB1C
:1004C0000C542705029D4FEA065847EA1637B5EB4C
:1004D00008056EEB070C870E920E47EA811742EA79
:1004E0008312A7FB0201B6EB0B0164EB00042B0D9A
:1004F00043EA0C335E1844EB1C50DA465146E7FBE6
:100500000201C5F313044FEA0B3343EA14534FEAD5
:100510000432019C43EA0603A4F10C040294009CFB
:10052000CDE900B400F0F8F803B0BDE8F08F00208A
:100530000146F9E72DE9F04D81EA030404F0004B90
:1005400021F0004514464FF0000A23F0004150EA24
:10055000050220D054EA01021DD0C5F30A57024615
:10056000C5F31303C1F31300C1F30A5640F4801519
:1005700043F48013A7EB0608101BD64608F2FD389B
:1005800073EB050002D308F1010801E092185B410A
:10059000B8F1000F03DA00200146BDE8F08D00201D
:1005A0004FF48011064684460EE0171B73EB0507D7
:1005B00005D3121B63EB050306434CEA010C490803
:1005C0004FEA300092185B4150EA0107EDD152EA40
:1005D000030012D082EA040083EA0501084305D033
:1005E000101BAB4106D20122002306E000224FF08F
:1005F000004302E06FF0010253101AEB06004CEBCF
:10060000085110EB0A0041EB0B01BDE8F04D00F082
:1006100074B8C1F30A52C1F3130140F2FF3341F43D
:1006200080119A4202DA00200146704740F23343BB
:100630009A42A2F2334202DC524200F03CB800F08F
:100640002BB8000030B5041E71F1000404DB4FF03C
:100650000044404264EB0101141E73F1000405DB09
:100660001C464FF00043524263EB0403994208BF1B
:10067000904230BD064C074D06E0E06840F00103B3
:1006800094E8070098471034AC42F6D3FFF780FD9A
:10069000E82C0008082D0008202A04DB203A00FA84
:1006A00002F1002070479140C2F1200320FA03F3C9
:1006B000194390407047202A04DB203A21FA02F0C7
:1006C0000021704721FA02F3D040C2F1200291408C
:1006D000084319467047202A06DBCB17203A41FA17
:1006E00002F043EAE07306E041FA02F3D040C2F1BF
:1006F0002002914008431946704710B5141E73F14B
:10070000000408DA401C41F1000192185B411A43D1
:1007100001D120F0010010BD2DE9F04D92469B461D
:1007200011B1B1FA81F202E0B0FA80F220329046C3
:10073000FFF7B2FF04460F4640EA0A0041EA0B0108
:1007400053465A46084313D0114653EA010019D0C4
:10075000C8F140025046FFF7AEFF05460E46504630
:1007600059464246FFF798FF084305D0012004E0B0
:1007700020463946BDE8F08D0020054346EAE07684
:100780002C4337430A986305E40AA0EB08000022D3
:10079000FD0A44EA47540A3002D500200146E9E741
:1007A000010510196941DDE9084500196941BDE8F5
:1007B000F04DA2E721B1826842F00102826003E0BD
:1007C000826822F001028260704700000021084A1E
:1007D0001168084A1140D0E900231A4383681A437C
:1007E000C3681A431143044AC2F804137047000057
:1007F00004230140E030FCFF0020014010B501213E
:10080000080200F08FFC00214FF4807000F08AFC99
:1008100010BD0146C86C80B27047000030B502467A
:10082000002000235068104C20400D790C6844EAE9
:1008300005242043506090680C4C2040D1E90354BB
:100840002C438D682C434D7944EA45042043906045
:10085000D06A20F470000C7D641EE4B2234340EAA9
:100860000350D06230BD0000FFFEFFFCFDF7FFC06B
:10087000F0B504460D4600200021092D11DDE06889
:10088000A5F10A0606EB4607072606FA07F1884394
:10089000A5F10A0606EB460603FA06F10843E060F6
:1008A0000CE0206905EB4507072606FA07F18843A7
:1008B00005EB450603FA06F108432061072A0FDA23
:1008C000606B561E06EB86071F2606FA07F1884363
:1008D000561E06EB860605FA06F10843606322E021
:1008E0000D2A0FDA206BD61F06EB86071F2606FAA5
:1008F00007F18843D61F06EB860605FA06F1084382
:10090000206310E0E06AA2F10D0606EB86071F26C1
:1009100006FA07F18843A2F10D0606EB860605FAF2
:1009200006F10843E062F0BD816841F080418160DA
:10093000704700BFFEE71FB50121480700F0D2FB5A
:10094000002000900290022003906946002000F0F1
:1009500033F80121002000F007F84FF40061002077
:1009600000F044F81FBD000039B1084A12680123A5
:1009700083401A43054B1A6006E0044A12680123BB
:1009800083409A43014B1A60704700000074004096
:100990001CB50121084600F095FB102000900320B3
:1009A0008DF8040000208DF807006946014800F02A
:1009B000B5F81CBD0000024030B5002200230A4CEF
:1009C000226840F6FE748440A243D1E900452C43DE
:1009D0008D682C43CD6844EA050303FA00F42243F2
:1009E000014C226030BD00000074004008B50022B8
:1009F0000092054A009200F10802009B1A440092FE
:100A0000009A116008BD00000074004070470000AB
:100A100010B5642001F03CFA09480088B0F57A7FEF
:100A200009DA0748008864300549088008460188CB
:100A3000044800F02EFD012000F020F810BD000059
:100A4000780000200004004010B5642001F020FA76
:100A500008480088C82809DD064800886438054928
:100A6000088008460188044800F013FD022000F0C9
:100A700005F810BD7800002000040040014908601E
:100A800070470000143C0140002123498279002A6C
:100A90003AD00A46126803689A430B461A600A1D48
:100AA000126803689A430B1D1A60027911440A68A0
:100AB00003681A430A60184A0832126803689A43A6
:100AC000154B08331A601A1D126803689A43124BBB
:100AD0000C331A604279102A0ED11A1F126803686B
:100AE0001A430D4B08331A601A1D126803681A4323
:100AF000094B0C331A600DE00749427911440A682A
:100B000003681A430A6005E0027911440A68036821
:100B10009A430A6070470000003C0140F0B50A4665
:100B200000210023002400BF3DE0012505FA01F368
:100B3000156805EA03049C4234D105684F0003267A
:100B4000BE40B543056015794E00B5400668354393
:100B500005601579012D02D01579022D16D1856811
:100B60004F000326BE40B543856055794E00B54021
:100B7000866835438560456801268E40B5434560EB
:100B8000456896798E40B6B235434560C5684F00DA
:100B90000326BE40B543C560D5794E00B540C66852
:100BA0003543C560491C1029BFD3F0BDF0B5002303
:100BB00000244D07ED0E02FA05F3CE1000F12005DA
:100BC00055F826504E07F70E0F26BE40B543CF10FE
:100BD00000F1200646F82750CE1000F1200555F808
:100BE000265045EA0304CE1000F1200545F82640C2
:100BF000F0BD418370470183704700BFFEE70000EE
:100C00001CB50121022000F05DFA4FF44060009015
:100C100001208DF8040000208DF8060003208DF8D7
:100C2000050001208DF8070069460448FFF776FFAC
:100C30004FF440610148FFF7DEFF1CBD0004024095
:100C400000BFFEE77047000070B5002100230F22AF
:100C5000C4781CB3174C246804F4E064C4F5E06461
:100C6000C4F30721C1F10404E3B20A4144789C4073
:100C7000E1B28478144021430C07210E0E4C057814
:100C80006155047804F01F050124AC4005786D110E
:100C9000AD0005F1E025C5F8004109E0047804F055
:100CA0001F050124AC40054D0678761145F8264015
:100CB00070BD00000CED00E000E400E080E100E029
:100CC00002490143024A1160704700000000FA0522
:100CD0000CED00E070B5002419E004F1B001C8B2D9
:100CE000002100F0B5F90021022000F0B1F9002147
:100CF000102000F0ADF9002505E00121002000F0F2
:100D0000A7F9681CC5B2802DF7DB601CC4B2082CA3
:100D1000E3DB70BD2DE9F04705460C4616464FF063
:100D2000000800201C4908707F2D01DC3F2C01DDEC
:100D3000BDE8F0872046E11704EB5171C910C1F1FD
:100D4000070101F0FF09E11704EB5171C910A4EB91
:100D5000C101CFB2C7F107010120884000F0FF08B0
:100D600036B10D48007840EA08000B49087005E0EC
:100D70000948007820EA080007490870C4F13F00DC
:100D8000C1B2284600F0B0F801210348007800F015
:100D90005FF900BFCCE70000090000201CB501216D
:100DA0005F2000F08FF9F820009001208DF80400FA
:100DB00000208DF8060003208DF8050001208DF835
:100DC000070069464748FFF7A9FE20214548FFF77D
:100DD00012FF642001F05CF820214248FFF709FF70
:100DE000C82001F055F820213E48FFF704FF0021FC
:100DF000AE2000F02DF90021022000F029F9002199
:100E0000102000F025F90021402000F021F90021F8
:100E1000812000F01DF90021FF2000F019F90021C8
:100E2000A12000F015F90021C82000F011F90021DF
:100E3000A62000F00DF90021A82000F009F90021FA
:100E40003F2000F005F90021D32000F001F9002136
:100E5000084600F0FDF80021D52000F0F9F8002147
:100E6000802000F0F5F80021D92000F0F1F80021F1
:100E7000F12000F0EDF80021DA2000F0E9F800217F
:100E8000122000F0E5F80021DB2000F0E1F800215D
:100E9000402000F0DDF80021202000F0D9F80021EA
:100EA000022000F0D5F800218D2000F0D1F80021BB
:100EB000142000F0CDF80021A42000F0C9F8002192
:100EC000A62000F0C5F80021AF2000F0C1F80021F5
:100ED000AF2000F0BDF8FFF7FDFE0021084600F04E
:100EE00003F81CBD0018024070B505460C462046AC
:100EF000E11704EB5171C1F3C70404F1B001C8B2AA
:100F0000002100F0A5F8A91CC1F3031141F0100065
:100F1000002100F09DF8A91C01F00F00002100F055
:100F200097F870BD2DE9F04107460E469046002522
:100F30000024A8F12000C5B27F2F02DD0027B01CDD
:100F4000C6B231463846FFF7CFFF002408E004EB75
:100F500005110F4A505C012100F07AF8601CC4B200
:100F6000082CF4DB06F10800C1B23846FFF7BCFFDD
:100F7000002409E004EB05110831054A505C012109
:100F800000F066F8601CC4B2082CF3DBBDE8F08109
:100F9000F82600082DE9FF5F074691461D460E9E84
:100FA0004FF0000A002433E0281B401EC1B20A2083
:100FB00001F02CF8B9FBF0F00A21B0FBF1F201FBD3
:100FC0001208BAF1000F13D1681EA04210DDB8F16B
:100FD000000F0BD1B34606EBDB71491001FB047126
:100FE000C8B220220199FFF79DFF0FE04FF0010AE0
:100FF000B34606EBDB71491001FB0471C8B208F17E
:101000003001CAB20199FFF78DFF00BF601CC4B266
:10101000AC42C9DBBDE8FF9F2DE9F04104460F4615
:10102000154600260EE0AA5D39462046FFF77AFFF6
:1010300004F10800C4B2782C02DD0024B81CC7B249
:10104000701CC6B2A85D0028EDD1BDE8F08100009B
:1010500070B504460E4626B110211848FFF7CBFDA7
:1010600003E010211548FFF7C4FD08211348FFF7DE
:10107000C0FD002517E080211048FFF7BAFD04F0FD
:10108000800020B140210D48FFF7B5FD03E040216D
:101090000A48FFF7AEFD80210848FFF7ACFD600667
:1010A000040E681CC5B2082DE5DB08210348FFF7D4
:1010B000A2FD10210148FFF79EFD70BD00180240FF
:1010C0007047000029B1064A12680243044B1A60B7
:1010D00004E0034A12688243014B1A607047000023
:1010E0003038024029B1064A12680243044B1A60A4
:1010F00004E0034A12688243014B1A607047000003
:101100004038024029B1064A12680243044B1A6073
:1011100004E0034A12688243014B1A6070470000E2
:101120004438024029B1064A12680243044B1A604F
:1011300004E0034A12688243014B1A6070470000C2
:10114000243802407047000030B500228B071C0F86
:101150000F2303FA04F20B4B8C1053F82430934303
:10116000084C8D1044F8253023468C1053F8243059
:101170008C07240F00FA04F42343024C8D1044F82A
:10118000253030BD083801400CB50020019000909A
:101190003448006840F480303249086000BF31486C
:1011A000006800F4003000900198401C0190009805
:1011B00018B90198B0F5A06FF1D12A48006800F481
:1011C000003010B10120009001E000200090009854
:1011D000012846D123484030006840F08050214922
:1011E000403108602048006840F480401E49086093
:1011F0001C48083000681B49083108600846006830
:1012000040F4004008600846006840F4A0500860C0
:101210001648091F0860081F006840F08070091F09
:10122000086000BF0F48006800F000700028F9D087
:1012300040F205600E4908600A480830006820F056
:1012400003000849083108600846006840F00200C1
:10125000086000BF03480830006800F00C00082850
:10126000F8D10CBD0038024000700040085440071F
:10127000003C02401CB501210820FFF723FF4FF47A
:101280000040009000208DF804008DF80600032037
:101290008DF8050001208DF8070069460148FFF729
:1012A0003DFC1CBD000C02407047000010B5154805
:1012B000006840F47000134908601348006840F06B
:1012C00001001149086000200F49083108600E48EC
:1012D00000680E4908400C4908600D48091D086067
:1012E000081F006820F48020091F086000200649BC
:1012F0000C310860FFF748FF4FF00060014980396A
:10130000086010BD88ED00E000380240FFFFF6FEE7
:101310001030002410B50121064800F014F80648EA
:10132000FFF777FA054908800846008800B201F007
:1013300011F810BD00040140002001407C00002095
:10134000CA4302827047CA430282704721B10288B1
:1013500042F00102028004E002884FF6FE731A4058
:10136000028070471FB5044601210220FFF7CAFE24
:10137000601E029040F2E730ADF804000020ADF8A6
:101380000C00ADF8060001A90F4800F085F8012116
:101390000D48FFF7D5FF2C208DF8000001208DF8B7
:1013A000010000208DF8020001208DF8030068463E
:1013B000FFF74AFC01221146034800F007F801211B
:1013C0000148FFF7C3FF1FBD000401401AB1838924
:1013D0000B43838102E083898B4383817047000044
:1013E00070B5002400220023058C4FF6FF663540BF
:1013F0000584028C8388848B4FF68F752C404FF6C2
:10140000FC752C400D882C434FF6FF552A408D89E2
:101410004FF6FF7606EA05252A434D8806EA05259C
:101420002A43154DA84202D0144DA8421DD14FF2B7
:10143000FF752A40CD894FF6FF7606EA05252A4337
:101440004FF6FF352A408D8806EA05252A434EF6D9
:10145000FF752B404DF6FF752B400D8A06EA0515EA
:101460002B434D8A06EA05152B43838084838D68C0
:10147000C563028470BD000000000140000401400B
:101480000A460021818B4FF6F7731940114381837F
:101490007047C1637047000000220288184B9842D1
:1014A0000ED0184B98420BD0B0F1804F08D0164B9D
:1014B000984205D0154B984202D0154B984204D162
:1014C0004FF68F731A404B881A43124B984207D03D
:1014D000114B984204D04FF6FF431A400B891A4330
:1014E00002804B68C3620B880385054B984202D08B
:1014F000044B984201D18B7A038601238382704783
:1015000000000140000401400004004000080040C9
:10151000000C0040001000400014004000BFFEE737
:101520000FB4084B10B504A902AA039800F0DEF826
:10153000044602A9002000F05CFC204610BC5DF8C7
:1015400014FB0000F31D000802E008C8121F08C1C8
:10155000002AFAD170477047002001E001C1121F34
:10156000002AFBD1704700002DE9FF5F82B0002107
:10157000DDE90430020DDDF840B0034318D044F635
:101580001050A2F2FF3242431514119801281FD0C7
:10159000A5EB0B00401C5FEA000A4FF000064E4F1F
:1015A000DFF83891B046504615D5CAF1000413E073
:1015B000119801244AA3012801D16FEA0B01029876
:1015C000119AC0E90031C0E9024206B0BDE8F09FBF
:1015D000CBF10000DFE704460021404A491842EB06
:1015E0000450CDE9001012E0E00707D032463B4638
:1015F00040464946FEF72CFF8046894632463B4628
:1016000010461946FEF724FF06460F466410002CCC
:10161000EAD1DDE90401DDE90023BAF1000F06DAC1
:10162000FEF716FF42464B46FEF712FF05E0FEF7B7
:1016300081FF42464B46FEF77DFF04460E460022E0
:10164000284BFEF7FFFF03D84FF0FF30014607E0BD
:101650000022254B20463146FEF753FEFEF7D9FF08
:10166000102409E0002C0ADB0A220023FEF7E1FD2A
:10167000039B30321A55641E50EA0102F2D1641CF9
:10168000039AC4F111031444119A012A03D00122D0
:1016900008430DD10AE0084304D000204FF0110B9D
:1016A000119072E7A3EB0B056D1E0DE05B4504DDA9
:1016B0004FF0000205F1010504E003DA4FF00002EB
:1016C000A5F10105002AECD002981199C0E9023178
:1016D000C0E9004579E70000000014400000F03F39
:1016E000300000000000F0430000E03F2DE9FF4F14
:1016F00095B09A46884606460025EEE1252877D122
:1017000000242746F94A0121039400E0044316F817
:10171000013F203B01FA03F01042F7D130782A282C
:1017200011D06FF02F033078A0F13002092A16D8BB
:10173000039A44F0020402EB820203EB42021044DB
:10174000761C0390EFE758F8042B0392002A03DA83
:10175000504244F40054039044F00204761C307864
:101760002E2816D116F8010F44F004042A280DD0B3
:101770006FF02F023078A0F13003092B09D807EB66
:10178000870302EB4303C718761CF3E758F8047B82
:10179000761C30786C280FD006DC4C2817D06828CF
:1017A0000DD06A2814D104E0742810D07A280FD103
:1017B0000DE044F400140AE044F4801401E044F421
:1017C00040147278824202D104F58014761C761C93
:1017D000307866280BD013DC582877D009DC002835
:1017E00075D04528F6D04628F4D047281AD193E181
:1017F00018E0632835D0642879D0652812D18BE1B0
:10180000702873D008DC6728F1D069286FD06E2863
:101810000DD06F2806D1ACE073282CD0752874D079
:10182000782853D05246179990476D1C54E1C4F361
:101830000250022809D003280DD0D8F8001004283F
:101840000DD00D6008F1040846E1D8F80010EA1741
:10185000C1E90052F6E7D8F800100D80F2E70D70EC
:10186000F0E718F8041B8DF8001000208DF8010037
:10187000EB46012003E058F804BB4FF0FF3061074E
:101880004FF0000102D40DE009F101018946B9428F
:101890000FDA8145F8DB1BF809100029F4D108E0C4
:1018A00009F1010189468142FADB1BF80910002980
:1018B000F6D103985346A0EB090721463846179AFC
:1018C00000F080FA284400EB090507E044E008E155
:1018D0000DE01BF8010B524617999047B9F1010929
:1018E000F7D2534621463846179AF2E039E00A21EA
:1018F000C4F302524FF0000B0091022A06D058F8B0
:10190000040BC117032A09D00AE023E008F10700FD
:1019100020F00702F2E80201904605E000B2C1178C
:10192000042A01D140B2C117002906DA0A46002173
:10193000404261EB02012D2202E0220504D52B2258
:101940008DF80420012203E0E20701D02022F7E70E
:10195000914657E00A2100E010214FF0000B009162
:101960000BE010214FF0000B44F004040827009115
:1019700003E008204FF0000B0090C4F30252022A4B
:1019800005D058F8040B0021032A08D008E008F11C
:10199000070020F00702F2E80201904603E080B25F
:1019A000042A00D1C0B24FF0000922072AD53278AC
:1019B000702A07D0DDF800C08CF0100C5CEA0B0C2C
:1019C00005D00EE040228DF80420012208E050EA04
:1019D000010306D030238DF804308DF80520022253
:1019E0009146009B83F0080353EA0B030AD150EAA7
:1019F000010201D1620705D530228DF804204FF095
:101A000001097F1E3278582A04D039A20C920CAA00
:101A100002920BE03BA2F9E75B46009AFEF709FC55
:101A20000C9B9B5C029A521E0292137050EA0102B8
:101A3000F2D1029804A9081A00F1200B600702D520
:101A400024F4803400E001275F4502DDA7EB0B00A2
:101A500000E0002000EB0B01009003984944401A7D
:101A60000390E00306D453462146179A039800F0EA
:101A7000A9F90544002706E001A85246C05D179960
:101A800090476D1C7F1C4F45F6DBE0030CD5534699
:101A90002146179A039800F095F9054404E0302098
:101AA0005246179990476D1C0099481E00900029D6
:101AB000F5DC08E00298029952460078491C029130
:101AC000179990476D1CBBF10001ABF1010BF1DCE4
:101AD0005BE100F065F90544761C307800287FF45E
:101AE0000DAE19B02846BDE8F08F000009280100AE
:101AF0003031323334353637383961626364656684
:101B00000000000030313233343536373839414245
:101B10004344454600000000600700D4062708F152
:101B2000070020F00700F0E80223804603F0004C95
:101B30005FEA0C0001D097A009E0200501D596A02E
:101B400005E0E00701D095A001E0AFF24C00139052
:101B5000307823F0004365280CD006DC452809D0F6
:101B600046281DD047287FD13BE0662818D067283B
:101B70007AD136E00021112F01DB112000E0781C22
:101B8000CDE9000104A90CA8FFF7EEFCDDE90D0189
:101B90000C9A4FF0000B07F10109109200914EE0F2
:101BA0004FF000400097CDE9011004A90CA8FFF701
:101BB000DBFCDDE90D020C9B0F994FF0000B914609
:101BC0001093009211B9791C00EB0109B7EB0900E1
:101BD00003D4C0F1FF3B07F10109A9EB0700019015
:101BE00042E0012F00DA01270021112F01DD112031
:101BF00000E03846CDE9000104A90CA8FFF7B4FCC9
:101C0000DDE90D010C9A00914FF0000BB9461092DE
:101C100021070FD4009A4A4503DA914601E0A9F161
:101C20000109B9F1010F05DD109AA9F10101515C1B
:101C30003029F4D0B84202DA10F1040F03DA01219E
:101C4000CDE9011010E0002803DC8344A9EB00017A
:101C500002E0411C494500DD8946A0EB0B00401C19
:101C600001904FF000400290200705D401984845AC
:101C700002DB4FF0FF30019000208DF84B000298FE
:101C80000DF14B07B0F1004F25D002200C902B2016
:101C90000D90029800280CDA404202902D200D9001
:101CA00007E00A210298FEF7AEFA3031029007F8F9
:101CB000011D0C99481E0C900029F2DC02980028A6
:101CC000EFD1791E0D980870307800F0200040F0B8
:101CD000450007F8020D11A8C01BC01D0290139803
:101CE000007800B1012000EB0901019801EBE071DF
:101CF000029801440398401A401E0390E00306D462
:101D000053462146179A039800F05CF8054413984F
:101D1000007818B15246179990476D1CE00323D5FF
:101D200053462146179A039800F04CF805441BE0EF
:101D3000BBF1000F07DB0098584504DD1098179998
:101D400010F80B0001E01799302052469047019897
:101D50000BF1010B401E05F10105019004D12E206D
:101D60005246179990476D1CB9F10001A9F101097C
:101D7000DEDC05E017F8010B5246179990476D1C01
:101D80000299481E02900029F4DC53462146179A16
:101D900003989EE62D0000002B00000020000000AC
:101DA0002DE9F041044600251E461746880404D458
:101DB00005E039462020B0476D1C641EF9D5284641
:101DC000BDE8F0812DE9F041044600251E4690460D
:101DD000C80301D5302700E02027880404D505E09A
:101DE00041463846B0476D1C641EF9D52846BDE80B
:101DF000F0810A68531C0B601070704700B58DB0FD
:101E000001210420FFF75EF901210802FFF77AF9AA
:101E100001200B9003208DF8300000208DF8330056
:101E20000BA91648FEF77AFEFEF7E8FC00200190A9
:101E300002900390049001A8FEF7C8FC00200590D2
:101E40008DF8180001208DF81900002007900990E6
:101E500001208DF8280005A90948FEF7DFFC0023C2
:101E600001220A210648FEF703FD01210448FEF77E
:101E7000A1FC0348FEF758FD0DB000BD000802406C
:101E80000020014010B5FEF783FDFEF754FD10BDA4
:101E900010B504464FF47A7104FB01F000F001F82C
:101EA00010BDC0EB001202EB420100BF0A1EA1F1FF
:101EB0000101FBD17047000000B585B00121402031
:101EC000FFF700F901218803FFF71CF903200390B5
:101ED00000208DF810008DF8120003208DF81100FD
:101EE00001208DF8130003A92348FEF717FE0321F4
:101EF0002148FEF780FE01218803FFF703F94FF424
:101F0000A060FEF7DDFE00210620FFF71DF901208D
:101F1000019000208DF808000C208DF809000120A8
:101F20008DF80A0001A8FEF7AFFD01210620FFF79A
:101F30000BF90220019001A8FEF7A6FD06208DF8FE
:101F4000000001208DF8010000208DF80200012022
:101F50008DF803006846FEF777FE07208DF8000035
:101F600001208DF801008DF802008DF8030068460D
:101F7000FEF76AFE05B000BD0018024008B501205A
:101F80001B49086000201B4908601B4908601B4969
:101F900008601B4908601B490860FEF731FEFFF727
:101FA0008BFFFFF767F9FFF76DFFFFF727FF902023
:101FB000FFF7D8F9FEF7F2FEFEF78CFE10200223A1
:101FC00017221E2100902820FEF7E4FF42F2CF01E5
:101FD00040F2E73000F026F84FF42F710A48FFF77F
:101FE00058FA04E000F0D2F81420FFF751FFF9E7A7
:101FF000140000202C0000202800002034000020C5
:10200000300000203C0000200004004010B50246D3
:10201000012000E050430B1EA1F10104E1B2F9D10F
:1020200010BD000030B58BB005460C4601210220E2
:10203000FFF758F801210220FFF744F8012009902A
:1020400002208DF8280000208DF82A0003208DF84A
:10205000290001208DF82B0009A91548FEF75EFD27
:10206000022200211248FEF7A1FD0795ADF81840A5
:102070000020ADF82000ADF81A0006A90D48FFF7C2
:102080000BFA6020ADF804000120ADF80600002036
:10209000ADF8100001A90748FFF7A2F9082105488B
:1020A000FFF7EEF901210348FFF750F90BB030BDFF
:1020B000000402400004004001460120184A10605C
:1020C000184800681268904205D216480068401C03
:1020D000144A106022E00120124A10601248008861
:1020E0007E2811DB002007E0104B421C33F8122041
:1020F00023F81020421CD0B27E28F5DB0B4A0A4B95
:102100001B8822F8131009E007480088401C064A83
:102110001080064A044B1B8822F8131070470000F9
:10212000680000206C00002040000020AC0000206F
:1021300070B5002420E0124830F8140000EE100AB8
:10214000B8EE400ADFED0F0A30EE600A9FED0D1A7F
:10215000C0EE010A9FED0C0AB2EE041A00EE810AED
:10216000BCEEC00A10EE100AC5B201222946204674
:10217000FEF7D0FD601CC4B27E2CDCDD70BD00001B
:10218000AC000020000000450000544210B5FEF7EE
:10219000A1FDFFF7CDFF00F0F7F81420FFF778FE60
:1021A00010BD0000A0F5006100EE901AF8EEE00A04
:1021B0009FED5B1AC0EE811AF1EE040A61EEA00AEF
:1021C000B0EE600A00EE901AB8EEE01ADFED541A95
:1021D000C1EE210AB1EE041A60EE810AB1EE021AD4
:1021E000F4EEC10AF1EE10FA08DD01214D4A11703A
:1021F0004D49D1ED000A4D49C1ED000A00214C4A7C
:1022000011804C4A118000BF3EE04B4A32F8112049
:10221000474B1B889A4217DD474A32F81120444B3E
:102220001A801A461288A2F5006200EE902AF8EE93
:10223000E00A9FED3B1AC0EE811AF1EE040A61EE4E
:10224000A00A3E4AC2ED000A3B4A32F81120394B3F
:102250001B889A4217DA384A32F81120354B1A8017
:102260001A461288A2F5006200EE902AB8EEE01A33
:10227000DFED2B1AC1EE210AB1EE041A60EE810ADD
:102280002F4AC2ED000A491C7E29BEDB2D49097880
:1022900021B1012918D0022939D12EE000212A4A82
:1022A00011802A49D1ED000A9FED1D1AF4EEC10AF2
:1022B000F1EE10FA07D2B0F5006F04DD214909787C
:1022C000491C204A117022E01F490988491C09B2A3
:1022D0001D4A11801D49D1ED000A9FED111AF4EE3F
:1022E000C10AF1EE10FA07DDB0F5006F04DA154906
:1022F0000978491C134A117009E013490988144AE6
:1023000011800021104A11800E4A117000BF00BFD9
:1023100000EE900AF8EEE00A0C49C1ED000A7047A1
:1023200000000045500000205C00002060000020FC
:102330004200002044000020AC0000205400002097
:10234000580000206600002074000020700000206B
:102350006400002010B5044600F09CF8094800789D
:10236000401C0849087008460078022808D1204619
:10237000FFF7A2FE2046FFF715FF00200149087075
:1023800010BD00007600002010B52DED048B96B036
:10239000314890ED000A3148D0ED000A30EE600A75
:1023A00010EE101A0846FDF71BFF41EC180B2C48E5
:1023B000B0F8FC00A0F5006000EE100AB8EEC00A0C
:1023C000DFED280A80EE201AB1EE040A21EE000AA1
:1023D00010EE104A2046FDF703FF41EC190B8DED7E
:1023E000008B53EC192B20A10CA8FFF799F80CAA2D
:1023F00023210020FEF710FE1F48008800EE100A7F
:10240000B8EE400ADFED1D0A20EE200AF0EE000AC9
:1024100020EE200AF7EE000A80EE801A11EE104A34
:102420002046FDF7DDFE41EC180B15480068FDF76E
:10243000D7FE41EC190B8DED008B53EC192B11A13C
:1024400002A8FFF76DF802AA32210020FEF7E4FD92
:1024500016B0BDEC048B10BD5400002058000020C5
:10246000AC00002000000045553D252E316620506F
:10247000503D252E31660000640000206F12833A23
:102480005C0000206E743D252E326620663D252EB0
:102490003266000010B50B48D0E90020521C40F114
:1024A00000000849C1E9002003C9FDF78BFE00EEDA
:1024B000100ADFED050A20EE200A044880ED000A2C
:1024C00010BD0000480000206F12833A5C0000201D
:1024D0000000000000000000002F000000000700C6
:1024E000070000147F147F1400242A7F2A12006240
:1024F00064081323003649552250000005030000EC
:1025000000001C224100000041221C000014083E73
:1025100008140008083E0808000000A06000000839
:10252000080808080000606000000020100804028D
:10253000003E5149453E0000427F4000004261514B
:102540004946002141454B31001814127F100027E5
:1025500045454539003C4A494930000171090503A8
:1025600000364949493600064949291E00003636D9
:10257000000000005636000000081422410000143C
:102580001414141400004122140800020151090619
:1025900000324959513E007C1211127C007F49499A
:1025A0004936003E41414122007F4141221C007FCB
:1025B00049494941007F09090901003E4149497AD9
:1025C000007F0808087F0000417F41000020404153
:1025D0003F01007F08142241007F40404040007FBF
:1025E000020C027F007F0408107F003E4141413E03
:1025F000007F09090906003E4151215E007F09194B
:1026000029460046494949310001017F0101003F47
:102610004040403F001F2040201F003F4038403FC7
:10262000006314081463000708700807006151492B
:10263000454300007F41410000552A552A550000BE
:1026400041417F000004020102040040404040403C
:10265000000001020400002054545478007F4844D4
:10266000443800384444442000384444487F00380B
:102670005454541800087E0901020018A4A4A47C34
:10268000007F080404780000447D400000408084FE
:102690007D00007F102844000000417F4000007C46
:1026A00004180478007C0804047800384444443852
:1026B00000FC242424180018242418FC007C08049E
:1026C000040800485454542000043F444020003C77
:1026D0004040207C001C2040201C003C4030403CFE
:1026E000004428102844001CA0A0A07C004464548E
:1026F0004C441414141414140000000000000000D2
:102700000000000000000000000000F800000000D1
:10271000000000333000000000100C06100C060012
:10272000000000000000000040C07840C078400079
:10273000043F04043F040400007088FC08300000DB
:10274000001820FF211E0000F008F000E018000033
:1027500000211C031E211E0000F0088870000000EC
:102760001E2123241927211010160E00000000003E
:102770000000000000000000000000E0180402005B
:10278000000000071820400000020418E0000000CC
:102790000040201807000000404080F080404000CA
:1027A0000202010F01020200000000F00000000020
:1027B0000101011F010101000000000000000000F4
:1027C00080B0700000000000000000000000000069
:1027D00000010101010101010000000000000000F2
:1027E000003030000000000000000000806018048D
:1027F000006018060100000000E010080810E0006A
:10280000000F102020100F00001010F80000000032
:102810000020203F20200000007008080888700079
:1028200000302824222130000030088888483000F9
:102830000018202020110E000000C02010F8000019
:1028400000070424243F240000F8088888080800B2
:102850000019212020110E0000E0108888180000C7
:10286000000F112020110E0000380808C838080099
:102870000000003F00000000007088080888700019
:10288000001C222121221C0000E010080810E0009A
:102890000000312222110F00000000C0C000000023
:1028A0000000003030000000000000800000000048
:1028B0000000806000000000000080402010080040
:1028C0000001020408102000404040404040400009
:1028D00004040404040404000008102040800000E4
:1028E0000020100804020100007048080808F000E9
:1028F0000000003036010000C030C828E810E000B9
:102900000718272423140B000000C038E000000043
:10291000203C23020227382008F8888888700000AD
:10292000203F202020110E00C03008080808380081
:10293000071820202010080008F808080810E000F8
:10294000203F202020100F0008F88888E808100099
:10295000203F20202320180008F88888E80810006D
:10296000203F200003000000C030080808380000A5
:1029700007182020221E020008F808000008F808A6
:10298000203F210101213F20000808F8080800002D
:102990000020203F2020000000000808F808080060
:1029A000C08080807F00000008F888C028180800D8
:1029B000203F20012638200008F808000000000011
:1029C000203F20202020300008F8F800F8F8080008
:1029D000203F003F003F200008F830C00008F80802
:1029E000203F200007183F00E01008080810E00012
:1029F0000F10202020100F0008F808080808F00029
:102A0000203F210101010000E01008080810E0004B
:102A10000F18242438504F0008F8888888887000E0
:102A2000203F2000030C3020007088080808380080
:102A30000038202121221C00180808F80808180076
:102A40000000203F2000000008F808000008F808F7
:102A5000001F202020201F000878880000C83808A8
:102A6000000007380E010000F80800F80008F80020
:102A7000033C0700073C03000818688080681808BA
:102A800020302C03032C30200838C800C838080038
:102A90000000203F2000000010080808C838080087
:102AA0002038262120201800000000FE020202002B
:102AB0000000007F40404000000C30C000000000DB
:102AC000000000010638C00000020202FE00000003
:102AD000004040407F0000000000040202020400A9
:102AE00000000000000000000000000000000000E6
:102AF00080808080808080800002020400000000CE
:102B000000000000000000000000808080800000C5
:102B10000019242222223F2008F8008080000000B3
:102B2000003F112020110E00000000808080000076
:102B3000000E112020201100000000808088F80085
:102B4000000E112020103F200000808080800000B7
:102B5000001F222222221300008080F0888888181B
:102B60000020203F20200000000080808080800026
:102B7000006B94949493600008F8008080800000BB
:102B8000203F210000203F20008098980000000096
:102B90000020203F202000000000008098980000C6
:102BA00000C08080807F000008F8000080808000E6
:102BB000203F24022D302000000808F8000000000B
:102BC0000020203F202000008080808080808000C6
:102BD000203F20003F20003F808000808080000058
:102BE000203F210000203F200000808080800000E6
:102BF000001F202020201F00808000808000000017
:102C000080FFA12020110E00000000808080800045
:102C1000000E112020A0FF80808080008080800036
:102C200020203F2120000100000080808080800063
:102C30000033242424241900008080E080800000D8
:102C40000000001F20200000808000000080800025
:102C5000001F202020103F20808080000080808086
:102C600000010E3008060100808000800080808016
:102C70000F300C030C300F0000808000808080003B
:102C80000020312E0E312000808080000080808066
:102C900080818E7018060100008080808080800016
:102CA0000021302C2221300000000000807C020234
:102CB00000000000003F404000000000FF00000056
:102CC00000000000FF0000000002027C8000000005
:102CD0000040403F00000000000601010202040421
:102CE0000000000000000000082D00080000002087
:102CF000AC00000048150008B42D0008AC0000200E
:102D0000540B00005815000833333333337337C086
:102D100000000000000000000500000000000000AE
:102D2000CDCC4C3E1E000000010000000010000051
:102D30000000000000000000000000000000000093
:102D40000000000000000000000000000000000083
:102D50000000000000000000000000000000000073
:102D60000000000000000000000000000000000063
:102D70000100000001000000000000000000000051
:102D8000BC02000000000000000000000000000085
:102D90000000000000000000000000000000000033
:102DA0000000000000000000000000000000000023
:042DB000000000001F
:040000050800018965
:00000001FF
